{
  "_format": "hh-sol-artifact-1",
  "contractName": "Gravy",
  "sourceName": "contracts/Gravy.sol",
  "abi": [
    {
      "inputs": [],
      "stateMutability": "nonpayable",
      "type": "constructor"
    },
    {
      "anonymous": false,
      "inputs": [
        {
          "indexed": true,
          "internalType": "address",
          "name": "owner",
          "type": "address"
        },
        {
          "indexed": true,
          "internalType": "address",
          "name": "spender",
          "type": "address"
        },
        {
          "indexed": false,
          "internalType": "uint256",
          "name": "value",
          "type": "uint256"
        }
      ],
      "name": "Approval",
      "type": "event"
    },
    {
      "anonymous": false,
      "inputs": [
        {
          "indexed": true,
          "internalType": "bytes32",
          "name": "role",
          "type": "bytes32"
        },
        {
          "indexed": true,
          "internalType": "bytes32",
          "name": "previousAdminRole",
          "type": "bytes32"
        },
        {
          "indexed": true,
          "internalType": "bytes32",
          "name": "newAdminRole",
          "type": "bytes32"
        }
      ],
      "name": "RoleAdminChanged",
      "type": "event"
    },
    {
      "anonymous": false,
      "inputs": [
        {
          "indexed": true,
          "internalType": "bytes32",
          "name": "role",
          "type": "bytes32"
        },
        {
          "indexed": true,
          "internalType": "address",
          "name": "account",
          "type": "address"
        },
        {
          "indexed": true,
          "internalType": "address",
          "name": "sender",
          "type": "address"
        }
      ],
      "name": "RoleGranted",
      "type": "event"
    },
    {
      "anonymous": false,
      "inputs": [
        {
          "indexed": true,
          "internalType": "bytes32",
          "name": "role",
          "type": "bytes32"
        },
        {
          "indexed": true,
          "internalType": "address",
          "name": "account",
          "type": "address"
        },
        {
          "indexed": true,
          "internalType": "address",
          "name": "sender",
          "type": "address"
        }
      ],
      "name": "RoleRevoked",
      "type": "event"
    },
    {
      "anonymous": false,
      "inputs": [
        {
          "indexed": true,
          "internalType": "address",
          "name": "from",
          "type": "address"
        },
        {
          "indexed": true,
          "internalType": "address",
          "name": "to",
          "type": "address"
        },
        {
          "indexed": false,
          "internalType": "uint256",
          "name": "value",
          "type": "uint256"
        }
      ],
      "name": "Transfer",
      "type": "event"
    },
    {
      "inputs": [],
      "name": "DEFAULT_ADMIN_ROLE",
      "outputs": [
        {
          "internalType": "bytes32",
          "name": "",
          "type": "bytes32"
        }
      ],
      "stateMutability": "view",
      "type": "function"
    },
    {
      "inputs": [],
      "name": "MINTER_ROLE",
      "outputs": [
        {
          "internalType": "bytes32",
          "name": "",
          "type": "bytes32"
        }
      ],
      "stateMutability": "view",
      "type": "function"
    },
    {
      "inputs": [],
      "name": "_initialSupply",
      "outputs": [
        {
          "internalType": "uint256",
          "name": "",
          "type": "uint256"
        }
      ],
      "stateMutability": "view",
      "type": "function"
    },
    {
      "inputs": [
        {
          "internalType": "address",
          "name": "owner",
          "type": "address"
        },
        {
          "internalType": "address",
          "name": "spender",
          "type": "address"
        }
      ],
      "name": "allowance",
      "outputs": [
        {
          "internalType": "uint256",
          "name": "",
          "type": "uint256"
        }
      ],
      "stateMutability": "view",
      "type": "function"
    },
    {
      "inputs": [
        {
          "internalType": "address",
          "name": "spender",
          "type": "address"
        },
        {
          "internalType": "uint256",
          "name": "amount",
          "type": "uint256"
        }
      ],
      "name": "approve",
      "outputs": [
        {
          "internalType": "bool",
          "name": "",
          "type": "bool"
        }
      ],
      "stateMutability": "nonpayable",
      "type": "function"
    },
    {
      "inputs": [
        {
          "internalType": "address",
          "name": "account",
          "type": "address"
        }
      ],
      "name": "balanceOf",
      "outputs": [
        {
          "internalType": "uint256",
          "name": "",
          "type": "uint256"
        }
      ],
      "stateMutability": "view",
      "type": "function"
    },
    {
      "inputs": [],
      "name": "decimals",
      "outputs": [
        {
          "internalType": "uint8",
          "name": "",
          "type": "uint8"
        }
      ],
      "stateMutability": "view",
      "type": "function"
    },
    {
      "inputs": [
        {
          "internalType": "address",
          "name": "spender",
          "type": "address"
        },
        {
          "internalType": "uint256",
          "name": "subtractedValue",
          "type": "uint256"
        }
      ],
      "name": "decreaseAllowance",
      "outputs": [
        {
          "internalType": "bool",
          "name": "",
          "type": "bool"
        }
      ],
      "stateMutability": "nonpayable",
      "type": "function"
    },
    {
      "inputs": [
        {
          "internalType": "bytes32",
          "name": "role",
          "type": "bytes32"
        }
      ],
      "name": "getRoleAdmin",
      "outputs": [
        {
          "internalType": "bytes32",
          "name": "",
          "type": "bytes32"
        }
      ],
      "stateMutability": "view",
      "type": "function"
    },
    {
      "inputs": [
        {
          "internalType": "bytes32",
          "name": "role",
          "type": "bytes32"
        },
        {
          "internalType": "address",
          "name": "account",
          "type": "address"
        }
      ],
      "name": "grantRole",
      "outputs": [],
      "stateMutability": "nonpayable",
      "type": "function"
    },
    {
      "inputs": [
        {
          "internalType": "bytes32",
          "name": "role",
          "type": "bytes32"
        },
        {
          "internalType": "address",
          "name": "account",
          "type": "address"
        }
      ],
      "name": "hasRole",
      "outputs": [
        {
          "internalType": "bool",
          "name": "",
          "type": "bool"
        }
      ],
      "stateMutability": "view",
      "type": "function"
    },
    {
      "inputs": [
        {
          "internalType": "address",
          "name": "spender",
          "type": "address"
        },
        {
          "internalType": "uint256",
          "name": "addedValue",
          "type": "uint256"
        }
      ],
      "name": "increaseAllowance",
      "outputs": [
        {
          "internalType": "bool",
          "name": "",
          "type": "bool"
        }
      ],
      "stateMutability": "nonpayable",
      "type": "function"
    },
    {
      "inputs": [
        {
          "internalType": "address",
          "name": "_to",
          "type": "address"
        },
        {
          "internalType": "uint256",
          "name": "_amount",
          "type": "uint256"
        }
      ],
      "name": "mint",
      "outputs": [],
      "stateMutability": "nonpayable",
      "type": "function"
    },
    {
      "inputs": [],
      "name": "name",
      "outputs": [
        {
          "internalType": "string",
          "name": "",
          "type": "string"
        }
      ],
      "stateMutability": "view",
      "type": "function"
    },
    {
      "inputs": [
        {
          "internalType": "bytes32",
          "name": "role",
          "type": "bytes32"
        },
        {
          "internalType": "address",
          "name": "account",
          "type": "address"
        }
      ],
      "name": "renounceRole",
      "outputs": [],
      "stateMutability": "nonpayable",
      "type": "function"
    },
    {
      "inputs": [
        {
          "internalType": "bytes32",
          "name": "role",
          "type": "bytes32"
        },
        {
          "internalType": "address",
          "name": "account",
          "type": "address"
        }
      ],
      "name": "revokeRole",
      "outputs": [],
      "stateMutability": "nonpayable",
      "type": "function"
    },
    {
      "inputs": [
        {
          "internalType": "address",
          "name": "_spender",
          "type": "address"
        },
        {
          "internalType": "uint256",
          "name": "_addedValue",
          "type": "uint256"
        }
      ],
      "name": "setAllowance",
      "outputs": [],
      "stateMutability": "nonpayable",
      "type": "function"
    },
    {
      "inputs": [
        {
          "internalType": "address",
          "name": "_newMinter",
          "type": "address"
        }
      ],
      "name": "setMinter",
      "outputs": [],
      "stateMutability": "nonpayable",
      "type": "function"
    },
    {
      "inputs": [
        {
          "internalType": "bytes4",
          "name": "interfaceId",
          "type": "bytes4"
        }
      ],
      "name": "supportsInterface",
      "outputs": [
        {
          "internalType": "bool",
          "name": "",
          "type": "bool"
        }
      ],
      "stateMutability": "view",
      "type": "function"
    },
    {
      "inputs": [],
      "name": "symbol",
      "outputs": [
        {
          "internalType": "string",
          "name": "",
          "type": "string"
        }
      ],
      "stateMutability": "view",
      "type": "function"
    },
    {
      "inputs": [],
      "name": "totalSupply",
      "outputs": [
        {
          "internalType": "uint256",
          "name": "",
          "type": "uint256"
        }
      ],
      "stateMutability": "view",
      "type": "function"
    },
    {
      "inputs": [
        {
          "internalType": "address",
          "name": "to",
          "type": "address"
        },
        {
          "internalType": "uint256",
          "name": "amount",
          "type": "uint256"
        }
      ],
      "name": "transfer",
      "outputs": [
        {
          "internalType": "bool",
          "name": "",
          "type": "bool"
        }
      ],
      "stateMutability": "nonpayable",
      "type": "function"
    },
    {
      "inputs": [
        {
          "internalType": "address",
          "name": "from",
          "type": "address"
        },
        {
          "internalType": "address",
          "name": "to",
          "type": "address"
        },
        {
          "internalType": "uint256",
          "name": "amount",
          "type": "uint256"
        }
      ],
      "name": "transferFrom",
      "outputs": [
        {
          "internalType": "bool",
          "name": "",
          "type": "bool"
        }
      ],
      "stateMutability": "nonpayable",
      "type": "function"
    }
  ],
  "bytecode": "0x60806040523480156200001157600080fd5b506040518060400160405280600581526020017f47726176790000000000000000000000000000000000000000000000000000008152506040518060400160405280600581526020017f47524156590000000000000000000000000000000000000000000000000000008152508160039080519060200190620000969291906200040c565b508060049080519060200190620000af9291906200040c565b50505069021e19e0c9bab2400000600781905550620000d86000801b336200012460201b60201c565b6200010a7f9f2df0fed2c77648de5860a4cc508cd0818c85b8b8a1ab4ceeef8d981c8956a6336200012460201b60201c565b6200011e336007546200021660201b60201c565b62000668565b6200013682826200038f60201b60201c565b620002125760016005600084815260200190815260200160002060000160008373ffffffffffffffffffffffffffffffffffffffff1673ffffffffffffffffffffffffffffffffffffffff16815260200190815260200160002060006101000a81548160ff021916908315150217905550620001b7620003fa60201b60201c565b73ffffffffffffffffffffffffffffffffffffffff168173ffffffffffffffffffffffffffffffffffffffff16837f2f8788117e7eff1d82e926ec794901d17c78024a50270940304540a733656f0d60405160405180910390a45b5050565b600073ffffffffffffffffffffffffffffffffffffffff168273ffffffffffffffffffffffffffffffffffffffff16141562000289576040517f08c379a00000000000000000000000000000000000000000000000000000000081526004016200028090620004f4565b60405180910390fd5b6200029d600083836200040260201b60201c565b8060026000828254620002b1919062000544565b92505081905550806000808473ffffffffffffffffffffffffffffffffffffffff1673ffffffffffffffffffffffffffffffffffffffff168152602001908152602001600020600082825462000308919062000544565b925050819055508173ffffffffffffffffffffffffffffffffffffffff16600073ffffffffffffffffffffffffffffffffffffffff167fddf252ad1be2c89b69c2b068fc378daa952ba7f163c4a11628f55a4df523b3ef836040516200036f919062000516565b60405180910390a36200038b600083836200040760201b60201c565b5050565b60006005600084815260200190815260200160002060000160008373ffffffffffffffffffffffffffffffffffffffff1673ffffffffffffffffffffffffffffffffffffffff16815260200190815260200160002060009054906101000a900460ff16905092915050565b600033905090565b505050565b505050565b8280546200041a90620005ab565b90600052602060002090601f0160209004810192826200043e57600085556200048a565b82601f106200045957805160ff19168380011785556200048a565b828001600101855582156200048a579182015b82811115620004895782518255916020019190600101906200046c565b5b5090506200049991906200049d565b5090565b5b80821115620004b85760008160009055506001016200049e565b5090565b6000620004cb601f8362000533565b9150620004d8826200063f565b602082019050919050565b620004ee81620005a1565b82525050565b600060208201905081810360008301526200050f81620004bc565b9050919050565b60006020820190506200052d6000830184620004e3565b92915050565b600082825260208201905092915050565b60006200055182620005a1565b91506200055e83620005a1565b9250827fffffffffffffffffffffffffffffffffffffffffffffffffffffffffffffffff03821115620005965762000595620005e1565b5b828201905092915050565b6000819050919050565b60006002820490506001821680620005c457607f821691505b60208210811415620005db57620005da62000610565b5b50919050565b7f4e487b7100000000000000000000000000000000000000000000000000000000600052601160045260246000fd5b7f4e487b7100000000000000000000000000000000000000000000000000000000600052602260045260246000fd5b7f45524332303a206d696e7420746f20746865207a65726f206164647265737300600082015250565b61242480620006786000396000f3fe608060405234801561001057600080fd5b506004361061014d5760003560e01c806340c10f19116100c3578063a9059cbb1161007c578063a9059cbb146103d8578063c3b2d33714610408578063d539139314610426578063d547741f14610444578063dd62ed3e14610460578063fca3b5aa146104905761014d565b806340c10f19146102f057806370a082311461030c57806391d148541461033c57806395d89b411461036c578063a217fddf1461038a578063a457c2d7146103a85761014d565b8063248a9ca311610115578063248a9ca31461021e5780632f2ff15d1461024e578063310ec4a71461026a578063313ce5671461028657806336568abe146102a457806339509351146102c05761014d565b806301ffc9a71461015257806306fdde0314610182578063095ea7b3146101a057806318160ddd146101d057806323b872dd146101ee575b600080fd5b61016c600480360381019061016791906119c1565b6104ac565b6040516101799190611c6e565b60405180910390f35b61018a610526565b6040516101979190611ca4565b60405180910390f35b6101ba60048036038101906101b59190611920565b6105b8565b6040516101c79190611c6e565b60405180910390f35b6101d86105db565b6040516101e59190611e06565b60405180910390f35b610208600480360381019061020391906118d1565b6105e5565b6040516102159190611c6e565b60405180910390f35b6102386004803603810190610233919061195c565b610614565b6040516102459190611c89565b60405180910390f35b61026860048036038101906102639190611985565b610634565b005b610284600480360381019061027f9190611920565b61065d565b005b61028e6106b8565b60405161029b9190611e21565b60405180910390f35b6102be60048036038101906102b99190611985565b6106c1565b005b6102da60048036038101906102d59190611920565b610744565b6040516102e79190611c6e565b60405180910390f35b61030a60048036038101906103059190611920565b6107ee565b005b6103266004803603810190610321919061186c565b610848565b6040516103339190611e06565b60405180910390f35b61035660048036038101906103519190611985565b610890565b6040516103639190611c6e565b60405180910390f35b6103746108fb565b6040516103819190611ca4565b60405180910390f35b61039261098d565b60405161039f9190611c89565b60405180910390f35b6103c260048036038101906103bd9190611920565b610994565b6040516103cf9190611c6e565b60405180910390f35b6103f260048036038101906103ed9190611920565b610a7e565b6040516103ff9190611c6e565b60405180910390f35b610410610aa1565b60405161041d9190611e06565b60405180910390f35b61042e610aa7565b60405161043b9190611c89565b60405180910390f35b61045e60048036038101906104599190611985565b610acb565b005b61047a60048036038101906104759190611895565b610af4565b6040516104879190611e06565b60405180910390f35b6104aa60048036038101906104a5919061186c565b610b7b565b005b60007f7965db0b000000000000000000000000000000000000000000000000000000007bffffffffffffffffffffffffffffffffffffffffffffffffffffffff1916827bffffffffffffffffffffffffffffffffffffffffffffffffffffffff1916148061051f575061051e82610c0a565b5b9050919050565b60606003805461053590611ffb565b80601f016020809104026020016040519081016040528092919081815260200182805461056190611ffb565b80156105ae5780601f10610583576101008083540402835291602001916105ae565b820191906000526020600020905b81548152906001019060200180831161059157829003601f168201915b5050505050905090565b6000806105c3610c74565b90506105d0818585610c7c565b600191505092915050565b6000600254905090565b6000806105f0610c74565b90506105fd858285610e47565b610608858585610ed3565b60019150509392505050565b600060056000838152602001908152602001600020600101549050919050565b61063d82610614565b61064e81610649610c74565b611154565b61065883836111f1565b505050565b7f9f2df0fed2c77648de5860a4cc508cd0818c85b8b8a1ab4ceeef8d981c8956a661068f8161068a610c74565b611154565b6000670de0b6b3a7640000836106a59190611eb9565b90506106b18482610744565b5050505050565b60006012905090565b6106c9610c74565b73ffffffffffffffffffffffffffffffffffffffff168173ffffffffffffffffffffffffffffffffffffffff1614610736576040517f08c379a000000000000000000000000000000000000000000000000000000000815260040161072d90611dc6565b60405180910390fd5b61074082826112d2565b5050565b60008061074f610c74565b90506107e3818585600160008673ffffffffffffffffffffffffffffffffffffffff1673ffffffffffffffffffffffffffffffffffffffff16815260200190815260200160002060008973ffffffffffffffffffffffffffffffffffffffff1673ffffffffffffffffffffffffffffffffffffffff168152602001908152602001600020546107de9190611e63565b610c7c565b600191505092915050565b7f9f2df0fed2c77648de5860a4cc508cd0818c85b8b8a1ab4ceeef8d981c8956a66108208161081b610c74565b611154565b6000670de0b6b3a7640000836108369190611eb9565b905061084284826113b4565b50505050565b60008060008373ffffffffffffffffffffffffffffffffffffffff1673ffffffffffffffffffffffffffffffffffffffff168152602001908152602001600020549050919050565b60006005600084815260200190815260200160002060000160008373ffffffffffffffffffffffffffffffffffffffff1673ffffffffffffffffffffffffffffffffffffffff16815260200190815260200160002060009054906101000a900460ff16905092915050565b60606004805461090a90611ffb565b80601f016020809104026020016040519081016040528092919081815260200182805461093690611ffb565b80156109835780601f1061095857610100808354040283529160200191610983565b820191906000526020600020905b81548152906001019060200180831161096657829003601f168201915b5050505050905090565b6000801b81565b60008061099f610c74565b90506000600160008373ffffffffffffffffffffffffffffffffffffffff1673ffffffffffffffffffffffffffffffffffffffff16815260200190815260200160002060008673ffffffffffffffffffffffffffffffffffffffff1673ffffffffffffffffffffffffffffffffffffffff16815260200190815260200160002054905083811015610a65576040517f08c379a0000000000000000000000000000000000000000000000000000000008152600401610a5c90611da6565b60405180910390fd5b610a728286868403610c7c565b60019250505092915050565b600080610a89610c74565b9050610a96818585610ed3565b600191505092915050565b60075481565b7f9f2df0fed2c77648de5860a4cc508cd0818c85b8b8a1ab4ceeef8d981c8956a681565b610ad482610614565b610ae581610ae0610c74565b611154565b610aef83836112d2565b505050565b6000600160008473ffffffffffffffffffffffffffffffffffffffff1673ffffffffffffffffffffffffffffffffffffffff16815260200190815260200160002060008373ffffffffffffffffffffffffffffffffffffffff1673ffffffffffffffffffffffffffffffffffffffff16815260200190815260200160002054905092915050565b6000801b610b9081610b8b610c74565b611154565b610bdc7f9f2df0fed2c77648de5860a4cc508cd0818c85b8b8a1ab4ceeef8d981c8956a6600660009054906101000a900473ffffffffffffffffffffffffffffffffffffffff166112d2565b610c067f9f2df0fed2c77648de5860a4cc508cd0818c85b8b8a1ab4ceeef8d981c8956a6836111f1565b5050565b60007f01ffc9a7000000000000000000000000000000000000000000000000000000007bffffffffffffffffffffffffffffffffffffffffffffffffffffffff1916827bffffffffffffffffffffffffffffffffffffffffffffffffffffffff1916149050919050565b600033905090565b600073ffffffffffffffffffffffffffffffffffffffff168373ffffffffffffffffffffffffffffffffffffffff161415610cec576040517f08c379a0000000000000000000000000000000000000000000000000000000008152600401610ce390611d86565b60405180910390fd5b600073ffffffffffffffffffffffffffffffffffffffff168273ffffffffffffffffffffffffffffffffffffffff161415610d5c576040517f08c379a0000000000000000000000000000000000000000000000000000000008152600401610d5390611d06565b60405180910390fd5b80600160008573ffffffffffffffffffffffffffffffffffffffff1673ffffffffffffffffffffffffffffffffffffffff16815260200190815260200160002060008473ffffffffffffffffffffffffffffffffffffffff1673ffffffffffffffffffffffffffffffffffffffff168152602001908152602001600020819055508173ffffffffffffffffffffffffffffffffffffffff168373ffffffffffffffffffffffffffffffffffffffff167f8c5be1e5ebec7d5bd14f71427d1e84f3dd0314c0f7b2291e5b200ac8c7c3b92583604051610e3a9190611e06565b60405180910390a3505050565b6000610e538484610af4565b90507fffffffffffffffffffffffffffffffffffffffffffffffffffffffffffffffff8114610ecd5781811015610ebf576040517f08c379a0000000000000000000000000000000000000000000000000000000008152600401610eb690611d26565b60405180910390fd5b610ecc8484848403610c7c565b5b50505050565b600073ffffffffffffffffffffffffffffffffffffffff168373ffffffffffffffffffffffffffffffffffffffff161415610f43576040517f08c379a0000000000000000000000000000000000000000000000000000000008152600401610f3a90611d66565b60405180910390fd5b600073ffffffffffffffffffffffffffffffffffffffff168273ffffffffffffffffffffffffffffffffffffffff161415610fb3576040517f08c379a0000000000000000000000000000000000000000000000000000000008152600401610faa90611ce6565b60405180910390fd5b610fbe838383611514565b60008060008573ffffffffffffffffffffffffffffffffffffffff1673ffffffffffffffffffffffffffffffffffffffff16815260200190815260200160002054905081811015611044576040517f08c379a000000000000000000000000000000000000000000000000000000000815260040161103b90611d46565b60405180910390fd5b8181036000808673ffffffffffffffffffffffffffffffffffffffff1673ffffffffffffffffffffffffffffffffffffffff16815260200190815260200160002081905550816000808573ffffffffffffffffffffffffffffffffffffffff1673ffffffffffffffffffffffffffffffffffffffff16815260200190815260200160002060008282546110d79190611e63565b925050819055508273ffffffffffffffffffffffffffffffffffffffff168473ffffffffffffffffffffffffffffffffffffffff167fddf252ad1be2c89b69c2b068fc378daa952ba7f163c4a11628f55a4df523b3ef8460405161113b9190611e06565b60405180910390a361114e848484611519565b50505050565b61115e8282610890565b6111ed576111838173ffffffffffffffffffffffffffffffffffffffff16601461151e565b6111918360001c602061151e565b6040516020016111a2929190611c34565b6040516020818303038152906040526040517f08c379a00000000000000000000000000000000000000000000000000000000081526004016111e49190611ca4565b60405180910390fd5b5050565b6111fb8282610890565b6112ce5760016005600084815260200190815260200160002060000160008373ffffffffffffffffffffffffffffffffffffffff1673ffffffffffffffffffffffffffffffffffffffff16815260200190815260200160002060006101000a81548160ff021916908315150217905550611273610c74565b73ffffffffffffffffffffffffffffffffffffffff168173ffffffffffffffffffffffffffffffffffffffff16837f2f8788117e7eff1d82e926ec794901d17c78024a50270940304540a733656f0d60405160405180910390a45b5050565b6112dc8282610890565b156113b05760006005600084815260200190815260200160002060000160008373ffffffffffffffffffffffffffffffffffffffff1673ffffffffffffffffffffffffffffffffffffffff16815260200190815260200160002060006101000a81548160ff021916908315150217905550611355610c74565b73ffffffffffffffffffffffffffffffffffffffff168173ffffffffffffffffffffffffffffffffffffffff16837ff6391f5c32d9c69d2a47ea670b442974b53935d1edc7fd64eb21e047a839171b60405160405180910390a45b5050565b600073ffffffffffffffffffffffffffffffffffffffff168273ffffffffffffffffffffffffffffffffffffffff161415611424576040517f08c379a000000000000000000000000000000000000000000000000000000000815260040161141b90611de6565b60405180910390fd5b61143060008383611514565b80600260008282546114429190611e63565b92505081905550806000808473ffffffffffffffffffffffffffffffffffffffff1673ffffffffffffffffffffffffffffffffffffffff16815260200190815260200160002060008282546114979190611e63565b925050819055508173ffffffffffffffffffffffffffffffffffffffff16600073ffffffffffffffffffffffffffffffffffffffff167fddf252ad1be2c89b69c2b068fc378daa952ba7f163c4a11628f55a4df523b3ef836040516114fc9190611e06565b60405180910390a361151060008383611519565b5050565b505050565b505050565b6060600060028360026115319190611eb9565b61153b9190611e63565b67ffffffffffffffff81111561157a577f4e487b7100000000000000000000000000000000000000000000000000000000600052604160045260246000fd5b6040519080825280601f01601f1916602001820160405280156115ac5781602001600182028036833780820191505090505b5090507f30000000000000000000000000000000000000000000000000000000000000008160008151811061160a577f4e487b7100000000000000000000000000000000000000000000000000000000600052603260045260246000fd5b60200101907effffffffffffffffffffffffffffffffffffffffffffffffffffffffffffff1916908160001a9053507f780000000000000000000000000000000000000000000000000000000000000081600181518110611694577f4e487b7100000000000000000000000000000000000000000000000000000000600052603260045260246000fd5b60200101907effffffffffffffffffffffffffffffffffffffffffffffffffffffffffffff1916908160001a905350600060018460026116d49190611eb9565b6116de9190611e63565b90505b60018111156117ca577f3031323334353637383961626364656600000000000000000000000000000000600f861660108110611746577f4e487b7100000000000000000000000000000000000000000000000000000000600052603260045260246000fd5b1a60f81b828281518110611783577f4e487b7100000000000000000000000000000000000000000000000000000000600052603260045260246000fd5b60200101907effffffffffffffffffffffffffffffffffffffffffffffffffffffffffffff1916908160001a905350600485901c9450806117c390611fd1565b90506116e1565b506000841461180e576040517f08c379a000000000000000000000000000000000000000000000000000000000815260040161180590611cc6565b60405180910390fd5b8091505092915050565b60008135905061182781612392565b92915050565b60008135905061183c816123a9565b92915050565b600081359050611851816123c0565b92915050565b600081359050611866816123d7565b92915050565b60006020828403121561187e57600080fd5b600061188c84828501611818565b91505092915050565b600080604083850312156118a857600080fd5b60006118b685828601611818565b92505060206118c785828601611818565b9150509250929050565b6000806000606084860312156118e657600080fd5b60006118f486828701611818565b935050602061190586828701611818565b925050604061191686828701611857565b9150509250925092565b6000806040838503121561193357600080fd5b600061194185828601611818565b925050602061195285828601611857565b9150509250929050565b60006020828403121561196e57600080fd5b600061197c8482850161182d565b91505092915050565b6000806040838503121561199857600080fd5b60006119a68582860161182d565b92505060206119b785828601611818565b9150509250929050565b6000602082840312156119d357600080fd5b60006119e184828501611842565b91505092915050565b6119f381611f25565b82525050565b611a0281611f31565b82525050565b6000611a1382611e3c565b611a1d8185611e47565b9350611a2d818560208601611f9e565b611a368161208b565b840191505092915050565b6000611a4c82611e3c565b611a568185611e58565b9350611a66818560208601611f9e565b80840191505092915050565b6000611a7f602083611e47565b9150611a8a8261209c565b602082019050919050565b6000611aa2602383611e47565b9150611aad826120c5565b604082019050919050565b6000611ac5602283611e47565b9150611ad082612114565b604082019050919050565b6000611ae8601d83611e47565b9150611af382612163565b602082019050919050565b6000611b0b602683611e47565b9150611b168261218c565b604082019050919050565b6000611b2e602583611e47565b9150611b39826121db565b604082019050919050565b6000611b51602483611e47565b9150611b5c8261222a565b604082019050919050565b6000611b74601783611e58565b9150611b7f82612279565b601782019050919050565b6000611b97602583611e47565b9150611ba2826122a2565b604082019050919050565b6000611bba601183611e58565b9150611bc5826122f1565b601182019050919050565b6000611bdd602f83611e47565b9150611be88261231a565b604082019050919050565b6000611c00601f83611e47565b9150611c0b82612369565b602082019050919050565b611c1f81611f87565b82525050565b611c2e81611f91565b82525050565b6000611c3f82611b67565b9150611c4b8285611a41565b9150611c5682611bad565b9150611c628284611a41565b91508190509392505050565b6000602082019050611c8360008301846119ea565b92915050565b6000602082019050611c9e60008301846119f9565b92915050565b60006020820190508181036000830152611cbe8184611a08565b905092915050565b60006020820190508181036000830152611cdf81611a72565b9050919050565b60006020820190508181036000830152611cff81611a95565b9050919050565b60006020820190508181036000830152611d1f81611ab8565b9050919050565b60006020820190508181036000830152611d3f81611adb565b9050919050565b60006020820190508181036000830152611d5f81611afe565b9050919050565b60006020820190508181036000830152611d7f81611b21565b9050919050565b60006020820190508181036000830152611d9f81611b44565b9050919050565b60006020820190508181036000830152611dbf81611b8a565b9050919050565b60006020820190508181036000830152611ddf81611bd0565b9050919050565b60006020820190508181036000830152611dff81611bf3565b9050919050565b6000602082019050611e1b6000830184611c16565b92915050565b6000602082019050611e366000830184611c25565b92915050565b600081519050919050565b600082825260208201905092915050565b600081905092915050565b6000611e6e82611f87565b9150611e7983611f87565b9250827fffffffffffffffffffffffffffffffffffffffffffffffffffffffffffffffff03821115611eae57611ead61202d565b5b828201905092915050565b6000611ec482611f87565b9150611ecf83611f87565b9250817fffffffffffffffffffffffffffffffffffffffffffffffffffffffffffffffff0483118215151615611f0857611f0761202d565b5b828202905092915050565b6000611f1e82611f67565b9050919050565b60008115159050919050565b6000819050919050565b60007fffffffff0000000000000000000000000000000000000000000000000000000082169050919050565b600073ffffffffffffffffffffffffffffffffffffffff82169050919050565b6000819050919050565b600060ff82169050919050565b60005b83811015611fbc578082015181840152602081019050611fa1565b83811115611fcb576000848401525b50505050565b6000611fdc82611f87565b91506000821415611ff057611fef61202d565b5b600182039050919050565b6000600282049050600182168061201357607f821691505b602082108114156120275761202661205c565b5b50919050565b7f4e487b7100000000000000000000000000000000000000000000000000000000600052601160045260246000fd5b7f4e487b7100000000000000000000000000000000000000000000000000000000600052602260045260246000fd5b6000601f19601f8301169050919050565b7f537472696e67733a20686578206c656e67746820696e73756666696369656e74600082015250565b7f45524332303a207472616e7366657220746f20746865207a65726f206164647260008201527f6573730000000000000000000000000000000000000000000000000000000000602082015250565b7f45524332303a20617070726f766520746f20746865207a65726f20616464726560008201527f7373000000000000000000000000000000000000000000000000000000000000602082015250565b7f45524332303a20696e73756666696369656e7420616c6c6f77616e6365000000600082015250565b7f45524332303a207472616e7366657220616d6f756e742065786365656473206260008201527f616c616e63650000000000000000000000000000000000000000000000000000602082015250565b7f45524332303a207472616e736665722066726f6d20746865207a65726f20616460008201527f6472657373000000000000000000000000000000000000000000000000000000602082015250565b7f45524332303a20617070726f76652066726f6d20746865207a65726f2061646460008201527f7265737300000000000000000000000000000000000000000000000000000000602082015250565b7f416363657373436f6e74726f6c3a206163636f756e7420000000000000000000600082015250565b7f45524332303a2064656372656173656420616c6c6f77616e63652062656c6f7760008201527f207a65726f000000000000000000000000000000000000000000000000000000602082015250565b7f206973206d697373696e6720726f6c6520000000000000000000000000000000600082015250565b7f416363657373436f6e74726f6c3a2063616e206f6e6c792072656e6f756e636560008201527f20726f6c657320666f722073656c660000000000000000000000000000000000602082015250565b7f45524332303a206d696e7420746f20746865207a65726f206164647265737300600082015250565b61239b81611f13565b81146123a657600080fd5b50565b6123b281611f31565b81146123bd57600080fd5b50565b6123c981611f3b565b81146123d457600080fd5b50565b6123e081611f87565b81146123eb57600080fd5b5056fea26469706673582212204d5ecf9c0506777df843d1e06ae776bddf0f2b7e7fe3226a5ee14b17f09fa0c764736f6c63430008040033",
  "linkReferences": {},
  "deployedLinkReferences": {}
}