{
  "_format": "hh-sol-artifact-1",
  "contractName": "Puss",
  "sourceName": "contracts/Puss.sol",
  "abi": [
    {
      "inputs": [
        {
          "internalType": "address",
          "name": "_gravyAddress",
          "type": "address"
        }
      ],
      "stateMutability": "nonpayable",
      "type": "constructor"
    },
    {
      "anonymous": false,
      "inputs": [
        {
          "indexed": true,
          "internalType": "address",
          "name": "owner",
          "type": "address"
        },
        {
          "indexed": true,
          "internalType": "address",
          "name": "approved",
          "type": "address"
        },
        {
          "indexed": true,
          "internalType": "uint256",
          "name": "tokenId",
          "type": "uint256"
        }
      ],
      "name": "Approval",
      "type": "event"
    },
    {
      "anonymous": false,
      "inputs": [
        {
          "indexed": true,
          "internalType": "address",
          "name": "owner",
          "type": "address"
        },
        {
          "indexed": true,
          "internalType": "address",
          "name": "operator",
          "type": "address"
        },
        {
          "indexed": false,
          "internalType": "bool",
          "name": "approved",
          "type": "bool"
        }
      ],
      "name": "ApprovalForAll",
      "type": "event"
    },
    {
      "anonymous": false,
      "inputs": [
        {
          "indexed": false,
          "internalType": "uint256",
          "name": "tokenId",
          "type": "uint256"
        },
        {
          "indexed": false,
          "internalType": "uint256",
          "name": "amount",
          "type": "uint256"
        }
      ],
      "name": "GravyEaten",
      "type": "event"
    },
    {
      "anonymous": false,
      "inputs": [
        {
          "indexed": false,
          "internalType": "uint256",
          "name": "tokenId",
          "type": "uint256"
        },
        {
          "indexed": false,
          "internalType": "uint256",
          "name": "level",
          "type": "uint256"
        }
      ],
      "name": "LevelUp",
      "type": "event"
    },
    {
      "anonymous": false,
      "inputs": [
        {
          "indexed": false,
          "internalType": "address",
          "name": "owner",
          "type": "address"
        },
        {
          "indexed": false,
          "internalType": "uint256",
          "name": "tokenId",
          "type": "uint256"
        }
      ],
      "name": "Mint",
      "type": "event"
    },
    {
      "anonymous": false,
      "inputs": [
        {
          "indexed": false,
          "internalType": "uint256",
          "name": "tokenId",
          "type": "uint256"
        },
        {
          "indexed": false,
          "internalType": "string",
          "name": "name",
          "type": "string"
        }
      ],
      "name": "NameChanged",
      "type": "event"
    },
    {
      "anonymous": false,
      "inputs": [
        {
          "indexed": true,
          "internalType": "address",
          "name": "previousOwner",
          "type": "address"
        },
        {
          "indexed": true,
          "internalType": "address",
          "name": "newOwner",
          "type": "address"
        }
      ],
      "name": "OwnershipTransferred",
      "type": "event"
    },
    {
      "anonymous": false,
      "inputs": [
        {
          "indexed": true,
          "internalType": "address",
          "name": "from",
          "type": "address"
        },
        {
          "indexed": true,
          "internalType": "address",
          "name": "to",
          "type": "address"
        },
        {
          "indexed": true,
          "internalType": "uint256",
          "name": "tokenId",
          "type": "uint256"
        }
      ],
      "name": "Transfer",
      "type": "event"
    },
    {
      "inputs": [
        {
          "internalType": "address",
          "name": "_address",
          "type": "address"
        }
      ],
      "name": "GetAllHolderTokens",
      "outputs": [
        {
          "internalType": "uint256[]",
          "name": "",
          "type": "uint256[]"
        }
      ],
      "stateMutability": "view",
      "type": "function"
    },
    {
      "inputs": [
        {
          "internalType": "uint256[]",
          "name": "_tokenIds",
          "type": "uint256[]"
        }
      ],
      "name": "GetTokensMetaData",
      "outputs": [
        {
          "components": [
            {
              "internalType": "uint256",
              "name": "level",
              "type": "uint256"
            },
            {
              "internalType": "uint256",
              "name": "gravyEaten",
              "type": "uint256"
            },
            {
              "internalType": "uint256",
              "name": "rarity",
              "type": "uint256"
            },
            {
              "internalType": "string",
              "name": "name",
              "type": "string"
            }
          ],
          "internalType": "struct Puss.PussStruct[]",
          "name": "",
          "type": "tuple[]"
        }
      ],
      "stateMutability": "view",
      "type": "function"
    },
    {
      "inputs": [
        {
          "internalType": "uint256",
          "name": "",
          "type": "uint256"
        }
      ],
      "name": "PussMetaData",
      "outputs": [
        {
          "internalType": "uint256",
          "name": "level",
          "type": "uint256"
        },
        {
          "internalType": "uint256",
          "name": "gravyEaten",
          "type": "uint256"
        },
        {
          "internalType": "uint256",
          "name": "rarity",
          "type": "uint256"
        },
        {
          "internalType": "string",
          "name": "name",
          "type": "string"
        }
      ],
      "stateMutability": "view",
      "type": "function"
    },
    {
      "inputs": [
        {
          "internalType": "address",
          "name": "to",
          "type": "address"
        },
        {
          "internalType": "uint256",
          "name": "tokenId",
          "type": "uint256"
        }
      ],
      "name": "approve",
      "outputs": [],
      "stateMutability": "nonpayable",
      "type": "function"
    },
    {
      "inputs": [
        {
          "internalType": "address",
          "name": "owner",
          "type": "address"
        }
      ],
      "name": "balanceOf",
      "outputs": [
        {
          "internalType": "uint256",
          "name": "",
          "type": "uint256"
        }
      ],
      "stateMutability": "view",
      "type": "function"
    },
    {
      "inputs": [
        {
          "internalType": "string",
          "name": "_name",
          "type": "string"
        },
        {
          "internalType": "uint256",
          "name": "_tokenId",
          "type": "uint256"
        }
      ],
      "name": "changeName",
      "outputs": [],
      "stateMutability": "nonpayable",
      "type": "function"
    },
    {
      "inputs": [
        {
          "internalType": "uint256",
          "name": "_amount",
          "type": "uint256"
        },
        {
          "internalType": "uint256",
          "name": "_tokenId",
          "type": "uint256"
        }
      ],
      "name": "eatGravy",
      "outputs": [],
      "stateMutability": "nonpayable",
      "type": "function"
    },
    {
      "inputs": [
        {
          "internalType": "uint256",
          "name": "tokenId",
          "type": "uint256"
        }
      ],
      "name": "getApproved",
      "outputs": [
        {
          "internalType": "address",
          "name": "",
          "type": "address"
        }
      ],
      "stateMutability": "view",
      "type": "function"
    },
    {
      "inputs": [
        {
          "internalType": "address",
          "name": "owner",
          "type": "address"
        },
        {
          "internalType": "address",
          "name": "operator",
          "type": "address"
        }
      ],
      "name": "isApprovedForAll",
      "outputs": [
        {
          "internalType": "bool",
          "name": "",
          "type": "bool"
        }
      ],
      "stateMutability": "view",
      "type": "function"
    },
    {
      "inputs": [],
      "name": "maxSupply",
      "outputs": [
        {
          "internalType": "uint256",
          "name": "",
          "type": "uint256"
        }
      ],
      "stateMutability": "view",
      "type": "function"
    },
    {
      "inputs": [],
      "name": "mintPrice",
      "outputs": [
        {
          "internalType": "uint256",
          "name": "",
          "type": "uint256"
        }
      ],
      "stateMutability": "view",
      "type": "function"
    },
    {
      "inputs": [
        {
          "internalType": "uint256",
          "name": "amount",
          "type": "uint256"
        }
      ],
      "name": "mintPuss",
      "outputs": [],
      "stateMutability": "payable",
      "type": "function"
    },
    {
      "inputs": [],
      "name": "name",
      "outputs": [
        {
          "internalType": "string",
          "name": "",
          "type": "string"
        }
      ],
      "stateMutability": "view",
      "type": "function"
    },
    {
      "inputs": [],
      "name": "nameChangeCost",
      "outputs": [
        {
          "internalType": "uint256",
          "name": "",
          "type": "uint256"
        }
      ],
      "stateMutability": "view",
      "type": "function"
    },
    {
      "inputs": [],
      "name": "owner",
      "outputs": [
        {
          "internalType": "address",
          "name": "",
          "type": "address"
        }
      ],
      "stateMutability": "view",
      "type": "function"
    },
    {
      "inputs": [
        {
          "internalType": "uint256",
          "name": "tokenId",
          "type": "uint256"
        }
      ],
      "name": "ownerOf",
      "outputs": [
        {
          "internalType": "address",
          "name": "",
          "type": "address"
        }
      ],
      "stateMutability": "view",
      "type": "function"
    },
    {
      "inputs": [
        {
          "internalType": "address",
          "name": "",
          "type": "address"
        }
      ],
      "name": "owners",
      "outputs": [
        {
          "internalType": "uint256",
          "name": "",
          "type": "uint256"
        }
      ],
      "stateMutability": "view",
      "type": "function"
    },
    {
      "inputs": [],
      "name": "renounceOwnership",
      "outputs": [],
      "stateMutability": "nonpayable",
      "type": "function"
    },
    {
      "inputs": [
        {
          "internalType": "address",
          "name": "from",
          "type": "address"
        },
        {
          "internalType": "address",
          "name": "to",
          "type": "address"
        },
        {
          "internalType": "uint256",
          "name": "tokenId",
          "type": "uint256"
        }
      ],
      "name": "safeTransferFrom",
      "outputs": [],
      "stateMutability": "nonpayable",
      "type": "function"
    },
    {
      "inputs": [
        {
          "internalType": "address",
          "name": "from",
          "type": "address"
        },
        {
          "internalType": "address",
          "name": "to",
          "type": "address"
        },
        {
          "internalType": "uint256",
          "name": "tokenId",
          "type": "uint256"
        },
        {
          "internalType": "bytes",
          "name": "_data",
          "type": "bytes"
        }
      ],
      "name": "safeTransferFrom",
      "outputs": [],
      "stateMutability": "nonpayable",
      "type": "function"
    },
    {
      "inputs": [
        {
          "internalType": "address",
          "name": "operator",
          "type": "address"
        },
        {
          "internalType": "bool",
          "name": "approved",
          "type": "bool"
        }
      ],
      "name": "setApprovalForAll",
      "outputs": [],
      "stateMutability": "nonpayable",
      "type": "function"
    },
    {
      "inputs": [
        {
          "internalType": "bytes4",
          "name": "interfaceId",
          "type": "bytes4"
        }
      ],
      "name": "supportsInterface",
      "outputs": [
        {
          "internalType": "bool",
          "name": "",
          "type": "bool"
        }
      ],
      "stateMutability": "view",
      "type": "function"
    },
    {
      "inputs": [],
      "name": "symbol",
      "outputs": [
        {
          "internalType": "string",
          "name": "",
          "type": "string"
        }
      ],
      "stateMutability": "view",
      "type": "function"
    },
    {
      "inputs": [
        {
          "internalType": "uint256",
          "name": "index",
          "type": "uint256"
        }
      ],
      "name": "tokenByIndex",
      "outputs": [
        {
          "internalType": "uint256",
          "name": "",
          "type": "uint256"
        }
      ],
      "stateMutability": "view",
      "type": "function"
    },
    {
      "inputs": [
        {
          "internalType": "address",
          "name": "owner",
          "type": "address"
        },
        {
          "internalType": "uint256",
          "name": "index",
          "type": "uint256"
        }
      ],
      "name": "tokenOfOwnerByIndex",
      "outputs": [
        {
          "internalType": "uint256",
          "name": "",
          "type": "uint256"
        }
      ],
      "stateMutability": "view",
      "type": "function"
    },
    {
      "inputs": [
        {
          "internalType": "uint256",
          "name": "tokenId",
          "type": "uint256"
        }
      ],
      "name": "tokenURI",
      "outputs": [
        {
          "internalType": "string",
          "name": "",
          "type": "string"
        }
      ],
      "stateMutability": "view",
      "type": "function"
    },
    {
      "inputs": [],
      "name": "totalSupply",
      "outputs": [
        {
          "internalType": "uint256",
          "name": "",
          "type": "uint256"
        }
      ],
      "stateMutability": "view",
      "type": "function"
    },
    {
      "inputs": [
        {
          "internalType": "address",
          "name": "from",
          "type": "address"
        },
        {
          "internalType": "address",
          "name": "to",
          "type": "address"
        },
        {
          "internalType": "uint256",
          "name": "tokenId",
          "type": "uint256"
        }
      ],
      "name": "transferFrom",
      "outputs": [],
      "stateMutability": "nonpayable",
      "type": "function"
    },
    {
      "inputs": [
        {
          "internalType": "address",
          "name": "newOwner",
          "type": "address"
        }
      ],
      "name": "transferOwnership",
      "outputs": [],
      "stateMutability": "nonpayable",
      "type": "function"
    }
  ],
  "bytecode": "0x60806040523480156200001157600080fd5b50604051620052ab380380620052ab8339818101604052810190620000379190620002f4565b6040518060400160405280600481526020017f50757373000000000000000000000000000000000000000000000000000000008152506040518060400160405280600481526020017f50555353000000000000000000000000000000000000000000000000000000008152508160009080519060200190620000bb9291906200022d565b508060019080519060200190620000d49291906200022d565b505050620000f7620000eb6200015f60201b60201c565b6200016760201b60201c565b80600e60006101000a81548173ffffffffffffffffffffffffffffffffffffffff021916908373ffffffffffffffffffffffffffffffffffffffff1602179055506103e8600b81905550670de0b6b3a7640000600c819055506064600d8190555050620003d3565b600033905090565b6000600a60009054906101000a900473ffffffffffffffffffffffffffffffffffffffff16905081600a60006101000a81548173ffffffffffffffffffffffffffffffffffffffff021916908373ffffffffffffffffffffffffffffffffffffffff1602179055508173ffffffffffffffffffffffffffffffffffffffff168173ffffffffffffffffffffffffffffffffffffffff167f8be0079c531659141344cd1fd0a4f28419497f9722a3daafe3b4186f6b6457e060405160405180910390a35050565b8280546200023b9062000354565b90600052602060002090601f0160209004810192826200025f5760008555620002ab565b82601f106200027a57805160ff1916838001178555620002ab565b82800160010185558215620002ab579182015b82811115620002aa5782518255916020019190600101906200028d565b5b509050620002ba9190620002be565b5090565b5b80821115620002d9576000816000905550600101620002bf565b5090565b600081519050620002ee81620003b9565b92915050565b6000602082840312156200030757600080fd5b60006200031784828501620002dd565b91505092915050565b60006200032d8262000334565b9050919050565b600073ffffffffffffffffffffffffffffffffffffffff82169050919050565b600060028204905060018216806200036d57607f821691505b602082108114156200038457620003836200038a565b5b50919050565b7f4e487b7100000000000000000000000000000000000000000000000000000000600052602260045260246000fd5b620003c48162000320565b8114620003d057600080fd5b50565b614ec880620003e36000396000f3fe6080604052600436106101c25760003560e01c806364555475116100f757806395d89b4111610095578063c87b56dd11610064578063c87b56dd14610680578063d5abeb01146106bd578063e985e9c5146106e8578063f2fde38b14610725576101c2565b806395d89b41146105c6578063a22cb465146105f1578063b61635c51461061a578063b88d4fde14610657576101c2565b8063715018a6116100d1578063715018a61461051e57806385d5cba4146105355780638d7388fd1461055e5780638da5cb5b1461059b576101c2565b8063645554751461049a5780636817c76c146104b657806370a08231146104e1576101c2565b806323b872dd116101645780633c8f59901161013e5780633c8f5990146103b757806342842e0e146103f75780634f6ccce7146104205780636352211e1461045d576101c2565b806323b872dd14610328578063270dc9fd146103515780632f745c591461037a576101c2565b8063081812fc116101a0578063081812fc1461026c578063095ea7b3146102a95780630e642c5a146102d257806318160ddd146102fd576101c2565b806301ffc9a7146101c7578063022914a71461020457806306fdde0314610241575b600080fd5b3480156101d357600080fd5b506101ee60048036038101906101e991906135d5565b61074e565b6040516101fb9190613ea6565b60405180910390f35b34801561021057600080fd5b5061022b600480360381019061022691906133c0565b6107c8565b6040516102389190614243565b60405180910390f35b34801561024d57600080fd5b506102566107e0565b6040516102639190613ec1565b60405180910390f35b34801561027857600080fd5b50610293600480360381019061028e919061367b565b610872565b6040516102a09190613d9b565b60405180910390f35b3480156102b557600080fd5b506102d060048036038101906102cb919061352b565b6108f7565b005b3480156102de57600080fd5b506102e7610a0f565b6040516102f49190614243565b60405180910390f35b34801561030957600080fd5b50610312610a15565b60405161031f9190614243565b60405180910390f35b34801561033457600080fd5b5061034f600480360381019061034a9190613425565b610a22565b005b34801561035d57600080fd5b5061037860048036038101906103739190613627565b610a82565b005b34801561038657600080fd5b506103a1600480360381019061039c919061352b565b610d05565b6040516103ae9190614243565b60405180910390f35b3480156103c357600080fd5b506103de60048036038101906103d9919061367b565b610daa565b6040516103ee94939291906142b7565b60405180910390f35b34801561040357600080fd5b5061041e60048036038101906104199190613425565b610e62565b005b34801561042c57600080fd5b506104476004803603810190610442919061367b565b610e82565b6040516104549190614243565b60405180910390f35b34801561046957600080fd5b50610484600480360381019061047f919061367b565b610f19565b6040516104919190613d9b565b60405180910390f35b6104b460048036038101906104af919061367b565b610fcb565b005b3480156104c257600080fd5b506104cb61124b565b6040516104d89190614243565b60405180910390f35b3480156104ed57600080fd5b50610508600480360381019061050391906133c0565b611251565b6040516105159190614243565b60405180910390f35b34801561052a57600080fd5b50610533611309565b005b34801561054157600080fd5b5061055c600480360381019061055791906136cd565b611391565b005b34801561056a57600080fd5b5061058560048036038101906105809190613567565b61165e565b6040516105929190613e62565b60405180910390f35b3480156105a757600080fd5b506105b06118f7565b6040516105bd9190613d9b565b60405180910390f35b3480156105d257600080fd5b506105db611921565b6040516105e89190613ec1565b60405180910390f35b3480156105fd57600080fd5b50610618600480360381019061061391906134ef565b6119b3565b005b34801561062657600080fd5b50610641600480360381019061063c91906133c0565b6119c9565b60405161064e9190613e84565b60405180910390f35b34801561066357600080fd5b5061067e60048036038101906106799190613474565b611b06565b005b34801561068c57600080fd5b506106a760048036038101906106a2919061367b565b611b68565b6040516106b49190613ec1565b60405180910390f35b3480156106c957600080fd5b506106d2611c0f565b6040516106df9190614243565b60405180910390f35b3480156106f457600080fd5b5061070f600480360381019061070a91906133e9565b611c15565b60405161071c9190613ea6565b60405180910390f35b34801561073157600080fd5b5061074c600480360381019061074791906133c0565b611ca9565b005b60007f780e9d63000000000000000000000000000000000000000000000000000000007bffffffffffffffffffffffffffffffffffffffffffffffffffffffff1916827bffffffffffffffffffffffffffffffffffffffffffffffffffffffff191614806107c157506107c082611da1565b5b9050919050565b60106020528060005260406000206000915090505481565b6060600080546107ef9061461b565b80601f016020809104026020016040519081016040528092919081815260200182805461081b9061461b565b80156108685780601f1061083d57610100808354040283529160200191610868565b820191906000526020600020905b81548152906001019060200180831161084b57829003601f168201915b5050505050905090565b600061087d82611e83565b6108bc576040517f08c379a00000000000000000000000000000000000000000000000000000000081526004016108b390614103565b60405180910390fd5b6004600083815260200190815260200160002060009054906101000a900473ffffffffffffffffffffffffffffffffffffffff169050919050565b600061090282610f19565b90508073ffffffffffffffffffffffffffffffffffffffff168373ffffffffffffffffffffffffffffffffffffffff161415610973576040517f08c379a000000000000000000000000000000000000000000000000000000000815260040161096a90614183565b60405180910390fd5b8073ffffffffffffffffffffffffffffffffffffffff16610992611eef565b73ffffffffffffffffffffffffffffffffffffffff1614806109c157506109c0816109bb611eef565b611c15565b5b610a00576040517f08c379a00000000000000000000000000000000000000000000000000000000081526004016109f790614043565b60405180910390fd5b610a0a8383611ef7565b505050565b600d5481565b6000600880549050905090565b610a33610a2d611eef565b82611fb0565b610a72576040517f08c379a0000000000000000000000000000000000000000000000000000000008152600401610a69906141e3565b60405180910390fd5b610a7d83838361208e565b505050565b803373ffffffffffffffffffffffffffffffffffffffff16610aa382610f19565b73ffffffffffffffffffffffffffffffffffffffff1614610af9576040517f08c379a0000000000000000000000000000000000000000000000000000000008152600401610af090614023565b60405180910390fd5b600d54600e60009054906101000a900473ffffffffffffffffffffffffffffffffffffffff1673ffffffffffffffffffffffffffffffffffffffff166370a08231336040518263ffffffff1660e01b8152600401610b579190613d9b565b60206040518083038186803b158015610b6f57600080fd5b505afa158015610b83573d6000803e3d6000fd5b505050506040513d601f19601f82011682018060405250810190610ba791906136a4565b1015610be8576040517f08c379a0000000000000000000000000000000000000000000000000000000008152600401610bdf90613f23565b60405180910390fd5b600e60009054906101000a900473ffffffffffffffffffffffffffffffffffffffff1673ffffffffffffffffffffffffffffffffffffffff166323b872dd3330600d546040518463ffffffff1660e01b8152600401610c4993929190613db6565b602060405180830381600087803b158015610c6357600080fd5b505af1158015610c77573d6000803e3d6000fd5b505050506040513d601f19601f82011682018060405250810190610c9b91906135ac565b5082600f60008481526020019081526020016000206003019080519060200190610cc6929190613148565b507f8edfa912e70e283a8ef6d6f52cd1faef9690ff989eff2f11a134e8478ba7b28b8284604051610cf892919061425e565b60405180910390a1505050565b6000610d1083611251565b8210610d51576040517f08c379a0000000000000000000000000000000000000000000000000000000008152600401610d4890613ee3565b60405180910390fd5b600660008473ffffffffffffffffffffffffffffffffffffffff1673ffffffffffffffffffffffffffffffffffffffff168152602001908152602001600020600083815260200190815260200160002054905092915050565b600f602052806000526040600020600091509050806000015490806001015490806002015490806003018054610ddf9061461b565b80601f0160208091040260200160405190810160405280929190818152602001828054610e0b9061461b565b8015610e585780601f10610e2d57610100808354040283529160200191610e58565b820191906000526020600020905b815481529060010190602001808311610e3b57829003601f168201915b5050505050905084565b610e7d83838360405180602001604052806000815250611b06565b505050565b6000610e8c610a15565b8210610ecd576040517f08c379a0000000000000000000000000000000000000000000000000000000008152600401610ec490614223565b60405180910390fd5b60088281548110610f07577f4e487b7100000000000000000000000000000000000000000000000000000000600052603260045260246000fd5b90600052602060002001549050919050565b6000806002600084815260200190815260200160002060009054906101000a900473ffffffffffffffffffffffffffffffffffffffff169050600073ffffffffffffffffffffffffffffffffffffffff168173ffffffffffffffffffffffffffffffffffffffff161415610fc2576040517f08c379a0000000000000000000000000000000000000000000000000000000008152600401610fb990614083565b60405180910390fd5b80915050919050565b6000811161100e576040517f08c379a000000000000000000000000000000000000000000000000000000000815260040161100590613f63565b60405180910390fd5b80600c5461101c91906144d7565b341461105d576040517f08c379a0000000000000000000000000000000000000000000000000000000008152600401611054906141a3565b60405180910390fd5b6000611067610a15565b905081816110759190614450565b600b54116110b8576040517f08c379a00000000000000000000000000000000000000000000000000000000081526004016110af90614203565b60405180910390fd5b60008060005b84811015611244576001846110d39190614450565b935083925060056110e26122f5565b6110ec91906146d1565b9150604051806080016040528060018152602001600081526020018381526020016040518060400160405280600581526020017f446f6c6c79000000000000000000000000000000000000000000000000000000815250815250600f60008581526020019081526020016000206000820151816000015560208201518160010155604082015181600201556060820151816003019080519060200190611193929190613148565b509050506001601060003373ffffffffffffffffffffffffffffffffffffffff1673ffffffffffffffffffffffffffffffffffffffff16815260200190815260200160002060008282546111e79190614450565b925050819055506111f83384612328565b7f0f6798a560793a54c3bcfe86a93cde1e73087d944c0ea20544137d41213968853384604051611229929190613e39565b60405180910390a1808061123c9061467e565b9150506110be565b5050505050565b600c5481565b60008073ffffffffffffffffffffffffffffffffffffffff168273ffffffffffffffffffffffffffffffffffffffff1614156112c2576040517f08c379a00000000000000000000000000000000000000000000000000000000081526004016112b990614063565b60405180910390fd5b600360008373ffffffffffffffffffffffffffffffffffffffff1673ffffffffffffffffffffffffffffffffffffffff168152602001908152602001600020549050919050565b611311611eef565b73ffffffffffffffffffffffffffffffffffffffff1661132f6118f7565b73ffffffffffffffffffffffffffffffffffffffff1614611385576040517f08c379a000000000000000000000000000000000000000000000000000000000815260040161137c90614123565b60405180910390fd5b61138f6000612346565b565b803373ffffffffffffffffffffffffffffffffffffffff166113b282610f19565b73ffffffffffffffffffffffffffffffffffffffff1614611408576040517f08c379a00000000000000000000000000000000000000000000000000000000081526004016113ff90614023565b60405180910390fd5b6000831161144b576040517f08c379a0000000000000000000000000000000000000000000000000000000008152600401611442906140a3565b60405180910390fd5b82600e60009054906101000a900473ffffffffffffffffffffffffffffffffffffffff1673ffffffffffffffffffffffffffffffffffffffff166370a08231336040518263ffffffff1660e01b81526004016114a79190613d9b565b60206040518083038186803b1580156114bf57600080fd5b505afa1580156114d3573d6000803e3d6000fd5b505050506040513d601f19601f820116820180604052508101906114f791906136a4565b1015611538576040517f08c379a000000000000000000000000000000000000000000000000000000000815260040161152f90613f23565b60405180910390fd5b600e60009054906101000a900473ffffffffffffffffffffffffffffffffffffffff1673ffffffffffffffffffffffffffffffffffffffff166323b872dd3330866040518463ffffffff1660e01b815260040161159793929190613db6565b602060405180830381600087803b1580156115b157600080fd5b505af11580156115c5573d6000803e3d6000fd5b505050506040513d601f19601f820116820180604052508101906115e991906135ac565b5082600f600084815260200190815260200160002060010160008282546116109190614450565b925050819055507f1bcc1120af7c339c9c5ef413b98f5a9c6d5ee66b4404de05a123ce1d90243455828460405161164892919061428e565b60405180910390a16116598261240c565b505050565b6060600083839050116116a6576040517f08c379a000000000000000000000000000000000000000000000000000000000815260040161169d906140e3565b60405180910390fd5b60008383905067ffffffffffffffff8111156116eb577f4e487b7100000000000000000000000000000000000000000000000000000000600052604160045260246000fd5b60405190808252806020026020018201604052801561172457816020015b6117116131ce565b8152602001906001900390816117095790505b509050600080600090505b858590508110156118eb57858582818110611773577f4e487b7100000000000000000000000000000000000000000000000000000000600052603260045260246000fd5b905060200201359150611784610a15565b8211156117c6576040517f08c379a00000000000000000000000000000000000000000000000000000000081526004016117bd90614163565b60405180910390fd5b600f60008381526020019081526020016000206040518060800160405290816000820154815260200160018201548152602001600282015481526020016003820180546118129061461b565b80601f016020809104026020016040519081016040528092919081815260200182805461183e9061461b565b801561188b5780601f106118605761010080835404028352916020019161188b565b820191906000526020600020905b81548152906001019060200180831161186e57829003601f168201915b5050505050815250508382815181106118cd577f4e487b7100000000000000000000000000000000000000000000000000000000600052603260045260246000fd5b602002602001018190525080806118e39061467e565b91505061172f565b50819250505092915050565b6000600a60009054906101000a900473ffffffffffffffffffffffffffffffffffffffff16905090565b6060600180546119309061461b565b80601f016020809104026020016040519081016040528092919081815260200182805461195c9061461b565b80156119a95780601f1061197e576101008083540402835291602001916119a9565b820191906000526020600020905b81548152906001019060200180831161198c57829003601f168201915b5050505050905090565b6119c56119be611eef565b83836124cc565b5050565b606060006119d683611251565b905060008111611a1b576040517f08c379a0000000000000000000000000000000000000000000000000000000008152600401611a12906141c3565b60405180910390fd5b60008167ffffffffffffffff811115611a5d577f4e487b7100000000000000000000000000000000000000000000000000000000600052604160045260246000fd5b604051908082528060200260200182016040528015611a8b5781602001602082028036833780820191505090505b50905060005b82811015611afb57611aa38582610d05565b828281518110611adc577f4e487b7100000000000000000000000000000000000000000000000000000000600052603260045260246000fd5b6020026020010181815250508080611af39061467e565b915050611a91565b508092505050919050565b611b17611b11611eef565b83611fb0565b611b56576040517f08c379a0000000000000000000000000000000000000000000000000000000008152600401611b4d906141e3565b60405180910390fd5b611b6284848484612639565b50505050565b6060611b7382611e83565b611bb2576040517f08c379a0000000000000000000000000000000000000000000000000000000008152600401611ba990614143565b60405180910390fd5b6000611bbc612695565b90506000815111611bdc5760405180602001604052806000815250611c07565b80611be6846126ac565b604051602001611bf7929190613d4b565b6040516020818303038152906040525b915050919050565b600b5481565b6000600560008473ffffffffffffffffffffffffffffffffffffffff1673ffffffffffffffffffffffffffffffffffffffff16815260200190815260200160002060008373ffffffffffffffffffffffffffffffffffffffff1673ffffffffffffffffffffffffffffffffffffffff16815260200190815260200160002060009054906101000a900460ff16905092915050565b611cb1611eef565b73ffffffffffffffffffffffffffffffffffffffff16611ccf6118f7565b73ffffffffffffffffffffffffffffffffffffffff1614611d25576040517f08c379a0000000000000000000000000000000000000000000000000000000008152600401611d1c90614123565b60405180910390fd5b600073ffffffffffffffffffffffffffffffffffffffff168173ffffffffffffffffffffffffffffffffffffffff161415611d95576040517f08c379a0000000000000000000000000000000000000000000000000000000008152600401611d8c90613f43565b60405180910390fd5b611d9e81612346565b50565b60007f80ac58cd000000000000000000000000000000000000000000000000000000007bffffffffffffffffffffffffffffffffffffffffffffffffffffffff1916827bffffffffffffffffffffffffffffffffffffffffffffffffffffffff19161480611e6c57507f5b5e139f000000000000000000000000000000000000000000000000000000007bffffffffffffffffffffffffffffffffffffffffffffffffffffffff1916827bffffffffffffffffffffffffffffffffffffffffffffffffffffffff1916145b80611e7c5750611e7b82612859565b5b9050919050565b60008073ffffffffffffffffffffffffffffffffffffffff166002600084815260200190815260200160002060009054906101000a900473ffffffffffffffffffffffffffffffffffffffff1673ffffffffffffffffffffffffffffffffffffffff1614159050919050565b600033905090565b816004600083815260200190815260200160002060006101000a81548173ffffffffffffffffffffffffffffffffffffffff021916908373ffffffffffffffffffffffffffffffffffffffff160217905550808273ffffffffffffffffffffffffffffffffffffffff16611f6a83610f19565b73ffffffffffffffffffffffffffffffffffffffff167f8c5be1e5ebec7d5bd14f71427d1e84f3dd0314c0f7b2291e5b200ac8c7c3b92560405160405180910390a45050565b6000611fbb82611e83565b611ffa576040517f08c379a0000000000000000000000000000000000000000000000000000000008152600401611ff190614003565b60405180910390fd5b600061200583610f19565b90508073ffffffffffffffffffffffffffffffffffffffff168473ffffffffffffffffffffffffffffffffffffffff16148061207457508373ffffffffffffffffffffffffffffffffffffffff1661205c84610872565b73ffffffffffffffffffffffffffffffffffffffff16145b8061208557506120848185611c15565b5b91505092915050565b8273ffffffffffffffffffffffffffffffffffffffff166120ae82610f19565b73ffffffffffffffffffffffffffffffffffffffff1614612104576040517f08c379a00000000000000000000000000000000000000000000000000000000081526004016120fb90613f83565b60405180910390fd5b600073ffffffffffffffffffffffffffffffffffffffff168273ffffffffffffffffffffffffffffffffffffffff161415612174576040517f08c379a000000000000000000000000000000000000000000000000000000000815260040161216b90613fc3565b60405180910390fd5b61217f8383836128c3565b61218a600082611ef7565b6001600360008573ffffffffffffffffffffffffffffffffffffffff1673ffffffffffffffffffffffffffffffffffffffff16815260200190815260200160002060008282546121da9190614531565b925050819055506001600360008473ffffffffffffffffffffffffffffffffffffffff1673ffffffffffffffffffffffffffffffffffffffff16815260200190815260200160002060008282546122319190614450565b92505081905550816002600083815260200190815260200160002060006101000a81548173ffffffffffffffffffffffffffffffffffffffff021916908373ffffffffffffffffffffffffffffffffffffffff160217905550808273ffffffffffffffffffffffffffffffffffffffff168473ffffffffffffffffffffffffffffffffffffffff167fddf252ad1be2c89b69c2b068fc378daa952ba7f163c4a11628f55a4df523b3ef60405160405180910390a46122f08383836129d7565b505050565b6000444260405160200161230a929190613d6f565b6040516020818303038152906040528051906020012060001c905090565b6123428282604051806020016040528060008152506129dc565b5050565b6000600a60009054906101000a900473ffffffffffffffffffffffffffffffffffffffff16905081600a60006101000a81548173ffffffffffffffffffffffffffffffffffffffff021916908373ffffffffffffffffffffffffffffffffffffffff1602179055508173ffffffffffffffffffffffffffffffffffffffff168173ffffffffffffffffffffffffffffffffffffffff167f8be0079c531659141344cd1fd0a4f28419497f9722a3daafe3b4186f6b6457e060405160405180910390a35050565b60c8600f600083815260200190815260200160002060000154600f60008481526020019081526020016000206001015461244691906144a6565b106124c9576001600f600083815260200190815260200160002060000160008282546124729190614450565b925050819055507f3b7ca85b5e3d1ebb3a81e8d9e27bfeb9ef2f447026c115421132a20b0733b73f81600f6000848152602001908152602001600020600001546040516124c092919061428e565b60405180910390a15b50565b8173ffffffffffffffffffffffffffffffffffffffff168373ffffffffffffffffffffffffffffffffffffffff16141561253b576040517f08c379a000000000000000000000000000000000000000000000000000000000815260040161253290613fe3565b60405180910390fd5b80600560008573ffffffffffffffffffffffffffffffffffffffff1673ffffffffffffffffffffffffffffffffffffffff16815260200190815260200160002060008473ffffffffffffffffffffffffffffffffffffffff1673ffffffffffffffffffffffffffffffffffffffff16815260200190815260200160002060006101000a81548160ff0219169083151502179055508173ffffffffffffffffffffffffffffffffffffffff168373ffffffffffffffffffffffffffffffffffffffff167f17307eab39ab6107e8899845ad3d59bd9653f200f220920489ca2b5937696c318360405161262c9190613ea6565b60405180910390a3505050565b61264484848461208e565b61265084848484612a37565b61268f576040517f08c379a000000000000000000000000000000000000000000000000000000000815260040161268690613f03565b60405180910390fd5b50505050565b606060405180602001604052806000815250905090565b606060008214156126f4576040518060400160405280600181526020017f30000000000000000000000000000000000000000000000000000000000000008152509050612854565b600082905060005b6000821461272657808061270f9061467e565b915050600a8261271f91906144a6565b91506126fc565b60008167ffffffffffffffff811115612768577f4e487b7100000000000000000000000000000000000000000000000000000000600052604160045260246000fd5b6040519080825280601f01601f19166020018201604052801561279a5781602001600182028036833780820191505090505b5090505b6000851461284d576001826127b39190614531565b9150600a856127c291906146d1565b60306127ce9190614450565b60f81b81838151811061280a577f4e487b7100000000000000000000000000000000000000000000000000000000600052603260045260246000fd5b60200101907effffffffffffffffffffffffffffffffffffffffffffffffffffffffffffff1916908160001a905350600a8561284691906144a6565b945061279e565b8093505050505b919050565b60007f01ffc9a7000000000000000000000000000000000000000000000000000000007bffffffffffffffffffffffffffffffffffffffffffffffffffffffff1916827bffffffffffffffffffffffffffffffffffffffffffffffffffffffff1916149050919050565b6128ce838383612bce565b600073ffffffffffffffffffffffffffffffffffffffff168373ffffffffffffffffffffffffffffffffffffffff1614156129115761290c81612bd3565b612950565b8173ffffffffffffffffffffffffffffffffffffffff168373ffffffffffffffffffffffffffffffffffffffff161461294f5761294e8382612c1c565b5b5b600073ffffffffffffffffffffffffffffffffffffffff168273ffffffffffffffffffffffffffffffffffffffff1614156129935761298e81612d89565b6129d2565b8273ffffffffffffffffffffffffffffffffffffffff168273ffffffffffffffffffffffffffffffffffffffff16146129d1576129d08282612ecc565b5b5b505050565b505050565b6129e68383612f4b565b6129f36000848484612a37565b612a32576040517f08c379a0000000000000000000000000000000000000000000000000000000008152600401612a2990613f03565b60405180910390fd5b505050565b6000612a588473ffffffffffffffffffffffffffffffffffffffff16613125565b15612bc1578373ffffffffffffffffffffffffffffffffffffffff1663150b7a02612a81611eef565b8786866040518563ffffffff1660e01b8152600401612aa39493929190613ded565b602060405180830381600087803b158015612abd57600080fd5b505af1925050508015612aee57506040513d601f19601f82011682018060405250810190612aeb91906135fe565b60015b612b71573d8060008114612b1e576040519150601f19603f3d011682016040523d82523d6000602084013e612b23565b606091505b50600081511415612b69576040517f08c379a0000000000000000000000000000000000000000000000000000000008152600401612b6090613f03565b60405180910390fd5b805181602001fd5b63150b7a0260e01b7bffffffffffffffffffffffffffffffffffffffffffffffffffffffff1916817bffffffffffffffffffffffffffffffffffffffffffffffffffffffff191614915050612bc6565b600190505b949350505050565b505050565b6008805490506009600083815260200190815260200160002081905550600881908060018154018082558091505060019003906000526020600020016000909190919091505550565b60006001612c2984611251565b612c339190614531565b9050600060076000848152602001908152602001600020549050818114612d18576000600660008673ffffffffffffffffffffffffffffffffffffffff1673ffffffffffffffffffffffffffffffffffffffff168152602001908152602001600020600084815260200190815260200160002054905080600660008773ffffffffffffffffffffffffffffffffffffffff1673ffffffffffffffffffffffffffffffffffffffff168152602001908152602001600020600084815260200190815260200160002081905550816007600083815260200190815260200160002081905550505b6007600084815260200190815260200160002060009055600660008573ffffffffffffffffffffffffffffffffffffffff1673ffffffffffffffffffffffffffffffffffffffff16815260200190815260200160002060008381526020019081526020016000206000905550505050565b60006001600880549050612d9d9190614531565b9050600060096000848152602001908152602001600020549050600060088381548110612df3577f4e487b7100000000000000000000000000000000000000000000000000000000600052603260045260246000fd5b906000526020600020015490508060088381548110612e3b577f4e487b7100000000000000000000000000000000000000000000000000000000600052603260045260246000fd5b906000526020600020018190555081600960008381526020019081526020016000208190555060096000858152602001908152602001600020600090556008805480612eb0577f4e487b7100000000000000000000000000000000000000000000000000000000600052603160045260246000fd5b6001900381819060005260206000200160009055905550505050565b6000612ed783611251565b905081600660008573ffffffffffffffffffffffffffffffffffffffff1673ffffffffffffffffffffffffffffffffffffffff168152602001908152602001600020600083815260200190815260200160002081905550806007600084815260200190815260200160002081905550505050565b600073ffffffffffffffffffffffffffffffffffffffff168273ffffffffffffffffffffffffffffffffffffffff161415612fbb576040517f08c379a0000000000000000000000000000000000000000000000000000000008152600401612fb2906140c3565b60405180910390fd5b612fc481611e83565b15613004576040517f08c379a0000000000000000000000000000000000000000000000000000000008152600401612ffb90613fa3565b60405180910390fd5b613010600083836128c3565b6001600360008473ffffffffffffffffffffffffffffffffffffffff1673ffffffffffffffffffffffffffffffffffffffff16815260200190815260200160002060008282546130609190614450565b92505081905550816002600083815260200190815260200160002060006101000a81548173ffffffffffffffffffffffffffffffffffffffff021916908373ffffffffffffffffffffffffffffffffffffffff160217905550808273ffffffffffffffffffffffffffffffffffffffff16600073ffffffffffffffffffffffffffffffffffffffff167fddf252ad1be2c89b69c2b068fc378daa952ba7f163c4a11628f55a4df523b3ef60405160405180910390a4613121600083836129d7565b5050565b6000808273ffffffffffffffffffffffffffffffffffffffff163b119050919050565b8280546131549061461b565b90600052602060002090601f01602090048101928261317657600085556131bd565b82601f1061318f57805160ff19168380011785556131bd565b828001600101855582156131bd579182015b828111156131bc5782518255916020019190600101906131a1565b5b5090506131ca91906131f6565b5090565b6040518060800160405280600081526020016000815260200160008152602001606081525090565b5b8082111561320f5760008160009055506001016131f7565b5090565b600061322661322184614328565b614303565b90508281526020810184848401111561323e57600080fd5b6132498482856145d9565b509392505050565b600061326461325f84614359565b614303565b90508281526020810184848401111561327c57600080fd5b6132878482856145d9565b509392505050565b60008135905061329e81614e36565b92915050565b60008083601f8401126132b657600080fd5b8235905067ffffffffffffffff8111156132cf57600080fd5b6020830191508360208202830111156132e757600080fd5b9250929050565b6000813590506132fd81614e4d565b92915050565b60008151905061331281614e4d565b92915050565b60008135905061332781614e64565b92915050565b60008151905061333c81614e64565b92915050565b600082601f83011261335357600080fd5b8135613363848260208601613213565b91505092915050565b600082601f83011261337d57600080fd5b813561338d848260208601613251565b91505092915050565b6000813590506133a581614e7b565b92915050565b6000815190506133ba81614e7b565b92915050565b6000602082840312156133d257600080fd5b60006133e08482850161328f565b91505092915050565b600080604083850312156133fc57600080fd5b600061340a8582860161328f565b925050602061341b8582860161328f565b9150509250929050565b60008060006060848603121561343a57600080fd5b60006134488682870161328f565b93505060206134598682870161328f565b925050604061346a86828701613396565b9150509250925092565b6000806000806080858703121561348a57600080fd5b60006134988782880161328f565b94505060206134a98782880161328f565b93505060406134ba87828801613396565b925050606085013567ffffffffffffffff8111156134d757600080fd5b6134e387828801613342565b91505092959194509250565b6000806040838503121561350257600080fd5b60006135108582860161328f565b9250506020613521858286016132ee565b9150509250929050565b6000806040838503121561353e57600080fd5b600061354c8582860161328f565b925050602061355d85828601613396565b9150509250929050565b6000806020838503121561357a57600080fd5b600083013567ffffffffffffffff81111561359457600080fd5b6135a0858286016132a4565b92509250509250929050565b6000602082840312156135be57600080fd5b60006135cc84828501613303565b91505092915050565b6000602082840312156135e757600080fd5b60006135f584828501613318565b91505092915050565b60006020828403121561361057600080fd5b600061361e8482850161332d565b91505092915050565b6000806040838503121561363a57600080fd5b600083013567ffffffffffffffff81111561365457600080fd5b6136608582860161336c565b925050602061367185828601613396565b9150509250929050565b60006020828403121561368d57600080fd5b600061369b84828501613396565b91505092915050565b6000602082840312156136b657600080fd5b60006136c4848285016133ab565b91505092915050565b600080604083850312156136e057600080fd5b60006136ee85828601613396565b92505060206136ff85828601613396565b9150509250929050565b60006137158383613cb3565b905092915050565b60006137298383613d16565b60208301905092915050565b61373e81614565565b82525050565b600061374f826143aa565b61375981856143f0565b93508360208202850161376b8561438a565b8060005b858110156137a757848403895281516137888582613709565b9450613793836143d6565b925060208a0199505060018101905061376f565b50829750879550505050505092915050565b60006137c4826143b5565b6137ce8185614401565b93506137d98361439a565b8060005b8381101561380a5781516137f1888261371d565b97506137fc836143e3565b9250506001810190506137dd565b5085935050505092915050565b61382081614577565b82525050565b6000613831826143c0565b61383b8185614412565b935061384b8185602086016145e8565b613854816147be565b840191505092915050565b600061386a826143cb565b6138748185614423565b93506138848185602086016145e8565b61388d816147be565b840191505092915050565b60006138a3826143cb565b6138ad8185614434565b93506138bd8185602086016145e8565b6138c6816147be565b840191505092915050565b60006138dc826143cb565b6138e68185614445565b93506138f68185602086016145e8565b80840191505092915050565b600061390f602b83614434565b915061391a826147cf565b604082019050919050565b6000613932603283614434565b915061393d8261481e565b604082019050919050565b6000613955601a83614434565b91506139608261486d565b602082019050919050565b6000613978602683614434565b915061398382614896565b604082019050919050565b600061399b601283614434565b91506139a6826148e5565b602082019050919050565b60006139be602583614434565b91506139c98261490e565b604082019050919050565b60006139e1601c83614434565b91506139ec8261495d565b602082019050919050565b6000613a04602483614434565b9150613a0f82614986565b604082019050919050565b6000613a27601983614434565b9150613a32826149d5565b602082019050919050565b6000613a4a602c83614434565b9150613a55826149fe565b604082019050919050565b6000613a6d601883614434565b9150613a7882614a4d565b602082019050919050565b6000613a90603883614434565b9150613a9b82614a76565b604082019050919050565b6000613ab3602a83614434565b9150613abe82614ac5565b604082019050919050565b6000613ad6602983614434565b9150613ae182614b14565b604082019050919050565b6000613af9601583614434565b9150613b0482614b63565b602082019050919050565b6000613b1c602083614434565b9150613b2782614b8c565b602082019050919050565b6000613b3f601283614434565b9150613b4a82614bb5565b602082019050919050565b6000613b62602c83614434565b9150613b6d82614bde565b604082019050919050565b6000613b85602083614434565b9150613b9082614c2d565b602082019050919050565b6000613ba8602f83614434565b9150613bb382614c56565b604082019050919050565b6000613bcb601083614434565b9150613bd682614ca5565b602082019050919050565b6000613bee602183614434565b9150613bf982614cce565b604082019050919050565b6000613c11601483614434565b9150613c1c82614d1d565b602082019050919050565b6000613c34600c83614434565b9150613c3f82614d46565b602082019050919050565b6000613c57603183614434565b9150613c6282614d6f565b604082019050919050565b6000613c7a600883614434565b9150613c8582614dbe565b602082019050919050565b6000613c9d602c83614434565b9150613ca882614de7565b604082019050919050565b6000608083016000830151613ccb6000860182613d16565b506020830151613cde6020860182613d16565b506040830151613cf16040860182613d16565b5060608301518482036060860152613d09828261385f565b9150508091505092915050565b613d1f816145cf565b82525050565b613d2e816145cf565b82525050565b613d45613d40826145cf565b6146c7565b82525050565b6000613d5782856138d1565b9150613d6382846138d1565b91508190509392505050565b6000613d7b8285613d34565b602082019150613d8b8284613d34565b6020820191508190509392505050565b6000602082019050613db06000830184613735565b92915050565b6000606082019050613dcb6000830186613735565b613dd86020830185613735565b613de56040830184613d25565b949350505050565b6000608082019050613e026000830187613735565b613e0f6020830186613735565b613e1c6040830185613d25565b8181036060830152613e2e8184613826565b905095945050505050565b6000604082019050613e4e6000830185613735565b613e5b6020830184613d25565b9392505050565b60006020820190508181036000830152613e7c8184613744565b905092915050565b60006020820190508181036000830152613e9e81846137b9565b905092915050565b6000602082019050613ebb6000830184613817565b92915050565b60006020820190508181036000830152613edb8184613898565b905092915050565b60006020820190508181036000830152613efc81613902565b9050919050565b60006020820190508181036000830152613f1c81613925565b9050919050565b60006020820190508181036000830152613f3c81613948565b9050919050565b60006020820190508181036000830152613f5c8161396b565b9050919050565b60006020820190508181036000830152613f7c8161398e565b9050919050565b60006020820190508181036000830152613f9c816139b1565b9050919050565b60006020820190508181036000830152613fbc816139d4565b9050919050565b60006020820190508181036000830152613fdc816139f7565b9050919050565b60006020820190508181036000830152613ffc81613a1a565b9050919050565b6000602082019050818103600083015261401c81613a3d565b9050919050565b6000602082019050818103600083015261403c81613a60565b9050919050565b6000602082019050818103600083015261405c81613a83565b9050919050565b6000602082019050818103600083015261407c81613aa6565b9050919050565b6000602082019050818103600083015261409c81613ac9565b9050919050565b600060208201905081810360008301526140bc81613aec565b9050919050565b600060208201905081810360008301526140dc81613b0f565b9050919050565b600060208201905081810360008301526140fc81613b32565b9050919050565b6000602082019050818103600083015261411c81613b55565b9050919050565b6000602082019050818103600083015261413c81613b78565b9050919050565b6000602082019050818103600083015261415c81613b9b565b9050919050565b6000602082019050818103600083015261417c81613bbe565b9050919050565b6000602082019050818103600083015261419c81613be1565b9050919050565b600060208201905081810360008301526141bc81613c04565b9050919050565b600060208201905081810360008301526141dc81613c27565b9050919050565b600060208201905081810360008301526141fc81613c4a565b9050919050565b6000602082019050818103600083015261421c81613c6d565b9050919050565b6000602082019050818103600083015261423c81613c90565b9050919050565b60006020820190506142586000830184613d25565b92915050565b60006040820190506142736000830185613d25565b81810360208301526142858184613898565b90509392505050565b60006040820190506142a36000830185613d25565b6142b06020830184613d25565b9392505050565b60006080820190506142cc6000830187613d25565b6142d96020830186613d25565b6142e66040830185613d25565b81810360608301526142f88184613898565b905095945050505050565b600061430d61431e565b9050614319828261464d565b919050565b6000604051905090565b600067ffffffffffffffff8211156143435761434261478f565b5b61434c826147be565b9050602081019050919050565b600067ffffffffffffffff8211156143745761437361478f565b5b61437d826147be565b9050602081019050919050565b6000819050602082019050919050565b6000819050602082019050919050565b600081519050919050565b600081519050919050565b600081519050919050565b600081519050919050565b6000602082019050919050565b6000602082019050919050565b600082825260208201905092915050565b600082825260208201905092915050565b600082825260208201905092915050565b600082825260208201905092915050565b600082825260208201905092915050565b600081905092915050565b600061445b826145cf565b9150614466836145cf565b9250827fffffffffffffffffffffffffffffffffffffffffffffffffffffffffffffffff0382111561449b5761449a614702565b5b828201905092915050565b60006144b1826145cf565b91506144bc836145cf565b9250826144cc576144cb614731565b5b828204905092915050565b60006144e2826145cf565b91506144ed836145cf565b9250817fffffffffffffffffffffffffffffffffffffffffffffffffffffffffffffffff048311821515161561452657614525614702565b5b828202905092915050565b600061453c826145cf565b9150614547836145cf565b92508282101561455a57614559614702565b5b828203905092915050565b6000614570826145af565b9050919050565b60008115159050919050565b60007fffffffff0000000000000000000000000000000000000000000000000000000082169050919050565b600073ffffffffffffffffffffffffffffffffffffffff82169050919050565b6000819050919050565b82818337600083830152505050565b60005b838110156146065780820151818401526020810190506145eb565b83811115614615576000848401525b50505050565b6000600282049050600182168061463357607f821691505b6020821081141561464757614646614760565b5b50919050565b614656826147be565b810181811067ffffffffffffffff821117156146755761467461478f565b5b80604052505050565b6000614689826145cf565b91507fffffffffffffffffffffffffffffffffffffffffffffffffffffffffffffffff8214156146bc576146bb614702565b5b600182019050919050565b6000819050919050565b60006146dc826145cf565b91506146e7836145cf565b9250826146f7576146f6614731565b5b828206905092915050565b7f4e487b7100000000000000000000000000000000000000000000000000000000600052601160045260246000fd5b7f4e487b7100000000000000000000000000000000000000000000000000000000600052601260045260246000fd5b7f4e487b7100000000000000000000000000000000000000000000000000000000600052602260045260246000fd5b7f4e487b7100000000000000000000000000000000000000000000000000000000600052604160045260246000fd5b6000601f19601f8301169050919050565b7f455243373231456e756d657261626c653a206f776e657220696e646578206f7560008201527f74206f6620626f756e6473000000000000000000000000000000000000000000602082015250565b7f4552433732313a207472616e7366657220746f206e6f6e20455243373231526560008201527f63656976657220696d706c656d656e7465720000000000000000000000000000602082015250565b7f596f7520646f6e2774206f776e20656e6f756768206772617679000000000000600082015250565b7f4f776e61626c653a206e6577206f776e657220697320746865207a65726f206160008201527f6464726573730000000000000000000000000000000000000000000000000000602082015250565b7f43616e6e6f74206d696e74203020507573730000000000000000000000000000600082015250565b7f4552433732313a207472616e736665722066726f6d20696e636f72726563742060008201527f6f776e6572000000000000000000000000000000000000000000000000000000602082015250565b7f4552433732313a20746f6b656e20616c7265616479206d696e74656400000000600082015250565b7f4552433732313a207472616e7366657220746f20746865207a65726f2061646460008201527f7265737300000000000000000000000000000000000000000000000000000000602082015250565b7f4552433732313a20617070726f766520746f2063616c6c657200000000000000600082015250565b7f4552433732313a206f70657261746f7220717565727920666f72206e6f6e657860008201527f697374656e7420746f6b656e0000000000000000000000000000000000000000602082015250565b7f596f7520646f206e6f74206f776e207468697320507573730000000000000000600082015250565b7f4552433732313a20617070726f76652063616c6c6572206973206e6f74206f7760008201527f6e6572206e6f7220617070726f76656420666f7220616c6c0000000000000000602082015250565b7f4552433732313a2062616c616e636520717565727920666f7220746865207a6560008201527f726f206164647265737300000000000000000000000000000000000000000000602082015250565b7f4552433732313a206f776e657220717565727920666f72206e6f6e657869737460008201527f656e7420746f6b656e0000000000000000000000000000000000000000000000602082015250565b7f596f752063616e27742065617420302067726176790000000000000000000000600082015250565b7f4552433732313a206d696e7420746f20746865207a65726f2061646472657373600082015250565b7f4e6f20746f6b656e732070726f76696465640000000000000000000000000000600082015250565b7f4552433732313a20617070726f76656420717565727920666f72206e6f6e657860008201527f697374656e7420746f6b656e0000000000000000000000000000000000000000602082015250565b7f4f776e61626c653a2063616c6c6572206973206e6f7420746865206f776e6572600082015250565b7f4552433732314d657461646174613a2055524920717565727920666f72206e6f60008201527f6e6578697374656e7420746f6b656e0000000000000000000000000000000000602082015250565b7f496e76616c696420746f6b656e20494400000000000000000000000000000000600082015250565b7f4552433732313a20617070726f76616c20746f2063757272656e74206f776e6560008201527f7200000000000000000000000000000000000000000000000000000000000000602082015250565b7f57726f6e6720707269636520737570706c696564000000000000000000000000600082015250565b7f4e6f20507573732068656c640000000000000000000000000000000000000000600082015250565b7f4552433732313a207472616e736665722063616c6c6572206973206e6f74206f60008201527f776e6572206e6f7220617070726f766564000000000000000000000000000000602082015250565b7f536f6c64206f7574000000000000000000000000000000000000000000000000600082015250565b7f455243373231456e756d657261626c653a20676c6f62616c20696e646578206f60008201527f7574206f6620626f756e64730000000000000000000000000000000000000000602082015250565b614e3f81614565565b8114614e4a57600080fd5b50565b614e5681614577565b8114614e6157600080fd5b50565b614e6d81614583565b8114614e7857600080fd5b50565b614e84816145cf565b8114614e8f57600080fd5b5056fea26469706673582212205e82c2852d8d9db570cd2fd25a477c11426fd5b8c12c85a15a1c7e54de7d1e7c64736f6c63430008040033",
  "linkReferences": {},
  "deployedLinkReferences": {}
}