{
  "_format": "hh-sol-artifact-1",
  "contractName": "Puss",
  "sourceName": "contracts/Puss.sol",
  "abi": [
    {
      "inputs": [
        {
          "internalType": "address",
          "name": "_gravyAddress",
          "type": "address"
        }
      ],
      "stateMutability": "nonpayable",
      "type": "constructor"
    },
    {
      "anonymous": false,
      "inputs": [
        {
          "indexed": true,
          "internalType": "address",
          "name": "owner",
          "type": "address"
        },
        {
          "indexed": true,
          "internalType": "address",
          "name": "approved",
          "type": "address"
        },
        {
          "indexed": true,
          "internalType": "uint256",
          "name": "tokenId",
          "type": "uint256"
        }
      ],
      "name": "Approval",
      "type": "event"
    },
    {
      "anonymous": false,
      "inputs": [
        {
          "indexed": true,
          "internalType": "address",
          "name": "owner",
          "type": "address"
        },
        {
          "indexed": true,
          "internalType": "address",
          "name": "operator",
          "type": "address"
        },
        {
          "indexed": false,
          "internalType": "bool",
          "name": "approved",
          "type": "bool"
        }
      ],
      "name": "ApprovalForAll",
      "type": "event"
    },
    {
      "anonymous": false,
      "inputs": [
        {
          "indexed": false,
          "internalType": "uint256",
          "name": "tokenId",
          "type": "uint256"
        },
        {
          "indexed": false,
          "internalType": "uint256",
          "name": "amount",
          "type": "uint256"
        }
      ],
      "name": "GravyEaten",
      "type": "event"
    },
    {
      "anonymous": false,
      "inputs": [
        {
          "indexed": false,
          "internalType": "uint256",
          "name": "tokenId",
          "type": "uint256"
        },
        {
          "indexed": false,
          "internalType": "uint256",
          "name": "level",
          "type": "uint256"
        }
      ],
      "name": "LevelUp",
      "type": "event"
    },
    {
      "anonymous": false,
      "inputs": [
        {
          "indexed": false,
          "internalType": "address",
          "name": "owner",
          "type": "address"
        },
        {
          "indexed": false,
          "internalType": "uint256",
          "name": "tokenId",
          "type": "uint256"
        }
      ],
      "name": "Mint",
      "type": "event"
    },
    {
      "anonymous": false,
      "inputs": [
        {
          "indexed": false,
          "internalType": "uint256",
          "name": "tokenId",
          "type": "uint256"
        },
        {
          "indexed": false,
          "internalType": "string",
          "name": "name",
          "type": "string"
        }
      ],
      "name": "NameChanged",
      "type": "event"
    },
    {
      "anonymous": false,
      "inputs": [
        {
          "indexed": true,
          "internalType": "address",
          "name": "previousOwner",
          "type": "address"
        },
        {
          "indexed": true,
          "internalType": "address",
          "name": "newOwner",
          "type": "address"
        }
      ],
      "name": "OwnershipTransferred",
      "type": "event"
    },
    {
      "anonymous": false,
      "inputs": [
        {
          "indexed": true,
          "internalType": "address",
          "name": "from",
          "type": "address"
        },
        {
          "indexed": true,
          "internalType": "address",
          "name": "to",
          "type": "address"
        },
        {
          "indexed": true,
          "internalType": "uint256",
          "name": "tokenId",
          "type": "uint256"
        }
      ],
      "name": "Transfer",
      "type": "event"
    },
    {
      "inputs": [
        {
          "internalType": "address",
          "name": "_address",
          "type": "address"
        }
      ],
      "name": "GetAllHolderTokens",
      "outputs": [
        {
          "internalType": "uint256[]",
          "name": "",
          "type": "uint256[]"
        }
      ],
      "stateMutability": "view",
      "type": "function"
    },
    {
      "inputs": [
        {
          "internalType": "uint256[]",
          "name": "_tokenIds",
          "type": "uint256[]"
        }
      ],
      "name": "GetTokensMetaData",
      "outputs": [
        {
          "components": [
            {
              "internalType": "uint256",
              "name": "level",
              "type": "uint256"
            },
            {
              "internalType": "uint256",
              "name": "gravyEaten",
              "type": "uint256"
            },
            {
              "internalType": "uint256",
              "name": "rarity",
              "type": "uint256"
            },
            {
              "internalType": "string",
              "name": "name",
              "type": "string"
            }
          ],
          "internalType": "struct Puss.PussStruct[]",
          "name": "",
          "type": "tuple[]"
        }
      ],
      "stateMutability": "view",
      "type": "function"
    },
    {
      "inputs": [
        {
          "internalType": "uint256",
          "name": "",
          "type": "uint256"
        }
      ],
      "name": "PussMetaData",
      "outputs": [
        {
          "internalType": "uint256",
          "name": "level",
          "type": "uint256"
        },
        {
          "internalType": "uint256",
          "name": "gravyEaten",
          "type": "uint256"
        },
        {
          "internalType": "uint256",
          "name": "rarity",
          "type": "uint256"
        },
        {
          "internalType": "string",
          "name": "name",
          "type": "string"
        }
      ],
      "stateMutability": "view",
      "type": "function"
    },
    {
      "inputs": [
        {
          "internalType": "address",
          "name": "to",
          "type": "address"
        },
        {
          "internalType": "uint256",
          "name": "tokenId",
          "type": "uint256"
        }
      ],
      "name": "approve",
      "outputs": [],
      "stateMutability": "nonpayable",
      "type": "function"
    },
    {
      "inputs": [
        {
          "internalType": "address",
          "name": "owner",
          "type": "address"
        }
      ],
      "name": "balanceOf",
      "outputs": [
        {
          "internalType": "uint256",
          "name": "",
          "type": "uint256"
        }
      ],
      "stateMutability": "view",
      "type": "function"
    },
    {
      "inputs": [
        {
          "internalType": "string",
          "name": "_name",
          "type": "string"
        },
        {
          "internalType": "uint256",
          "name": "_tokenId",
          "type": "uint256"
        }
      ],
      "name": "changeName",
      "outputs": [],
      "stateMutability": "nonpayable",
      "type": "function"
    },
    {
      "inputs": [
        {
          "internalType": "uint256",
          "name": "_amount",
          "type": "uint256"
        },
        {
          "internalType": "uint256",
          "name": "_tokenId",
          "type": "uint256"
        }
      ],
      "name": "eatGravy",
      "outputs": [],
      "stateMutability": "nonpayable",
      "type": "function"
    },
    {
      "inputs": [
        {
          "internalType": "uint256",
          "name": "tokenId",
          "type": "uint256"
        }
      ],
      "name": "getApproved",
      "outputs": [
        {
          "internalType": "address",
          "name": "",
          "type": "address"
        }
      ],
      "stateMutability": "view",
      "type": "function"
    },
    {
      "inputs": [
        {
          "internalType": "address",
          "name": "owner",
          "type": "address"
        },
        {
          "internalType": "address",
          "name": "operator",
          "type": "address"
        }
      ],
      "name": "isApprovedForAll",
      "outputs": [
        {
          "internalType": "bool",
          "name": "",
          "type": "bool"
        }
      ],
      "stateMutability": "view",
      "type": "function"
    },
    {
      "inputs": [],
      "name": "maxSupply",
      "outputs": [
        {
          "internalType": "uint256",
          "name": "",
          "type": "uint256"
        }
      ],
      "stateMutability": "view",
      "type": "function"
    },
    {
      "inputs": [],
      "name": "mintPrice",
      "outputs": [
        {
          "internalType": "uint256",
          "name": "",
          "type": "uint256"
        }
      ],
      "stateMutability": "view",
      "type": "function"
    },
    {
      "inputs": [
        {
          "internalType": "uint256",
          "name": "amount",
          "type": "uint256"
        }
      ],
      "name": "mintPuss",
      "outputs": [],
      "stateMutability": "payable",
      "type": "function"
    },
    {
      "inputs": [],
      "name": "name",
      "outputs": [
        {
          "internalType": "string",
          "name": "",
          "type": "string"
        }
      ],
      "stateMutability": "view",
      "type": "function"
    },
    {
      "inputs": [],
      "name": "nameChangeCost",
      "outputs": [
        {
          "internalType": "uint256",
          "name": "",
          "type": "uint256"
        }
      ],
      "stateMutability": "view",
      "type": "function"
    },
    {
      "inputs": [],
      "name": "owner",
      "outputs": [
        {
          "internalType": "address",
          "name": "",
          "type": "address"
        }
      ],
      "stateMutability": "view",
      "type": "function"
    },
    {
      "inputs": [
        {
          "internalType": "uint256",
          "name": "tokenId",
          "type": "uint256"
        }
      ],
      "name": "ownerOf",
      "outputs": [
        {
          "internalType": "address",
          "name": "",
          "type": "address"
        }
      ],
      "stateMutability": "view",
      "type": "function"
    },
    {
      "inputs": [
        {
          "internalType": "address",
          "name": "",
          "type": "address"
        }
      ],
      "name": "owners",
      "outputs": [
        {
          "internalType": "uint256",
          "name": "",
          "type": "uint256"
        }
      ],
      "stateMutability": "view",
      "type": "function"
    },
    {
      "inputs": [],
      "name": "renounceOwnership",
      "outputs": [],
      "stateMutability": "nonpayable",
      "type": "function"
    },
    {
      "inputs": [
        {
          "internalType": "address",
          "name": "from",
          "type": "address"
        },
        {
          "internalType": "address",
          "name": "to",
          "type": "address"
        },
        {
          "internalType": "uint256",
          "name": "tokenId",
          "type": "uint256"
        }
      ],
      "name": "safeTransferFrom",
      "outputs": [],
      "stateMutability": "nonpayable",
      "type": "function"
    },
    {
      "inputs": [
        {
          "internalType": "address",
          "name": "from",
          "type": "address"
        },
        {
          "internalType": "address",
          "name": "to",
          "type": "address"
        },
        {
          "internalType": "uint256",
          "name": "tokenId",
          "type": "uint256"
        },
        {
          "internalType": "bytes",
          "name": "_data",
          "type": "bytes"
        }
      ],
      "name": "safeTransferFrom",
      "outputs": [],
      "stateMutability": "nonpayable",
      "type": "function"
    },
    {
      "inputs": [
        {
          "internalType": "address",
          "name": "operator",
          "type": "address"
        },
        {
          "internalType": "bool",
          "name": "approved",
          "type": "bool"
        }
      ],
      "name": "setApprovalForAll",
      "outputs": [],
      "stateMutability": "nonpayable",
      "type": "function"
    },
    {
      "inputs": [
        {
          "internalType": "bytes4",
          "name": "interfaceId",
          "type": "bytes4"
        }
      ],
      "name": "supportsInterface",
      "outputs": [
        {
          "internalType": "bool",
          "name": "",
          "type": "bool"
        }
      ],
      "stateMutability": "view",
      "type": "function"
    },
    {
      "inputs": [],
      "name": "symbol",
      "outputs": [
        {
          "internalType": "string",
          "name": "",
          "type": "string"
        }
      ],
      "stateMutability": "view",
      "type": "function"
    },
    {
      "inputs": [
        {
          "internalType": "uint256",
          "name": "index",
          "type": "uint256"
        }
      ],
      "name": "tokenByIndex",
      "outputs": [
        {
          "internalType": "uint256",
          "name": "",
          "type": "uint256"
        }
      ],
      "stateMutability": "view",
      "type": "function"
    },
    {
      "inputs": [
        {
          "internalType": "address",
          "name": "owner",
          "type": "address"
        },
        {
          "internalType": "uint256",
          "name": "index",
          "type": "uint256"
        }
      ],
      "name": "tokenOfOwnerByIndex",
      "outputs": [
        {
          "internalType": "uint256",
          "name": "",
          "type": "uint256"
        }
      ],
      "stateMutability": "view",
      "type": "function"
    },
    {
      "inputs": [
        {
          "internalType": "uint256",
          "name": "tokenId",
          "type": "uint256"
        }
      ],
      "name": "tokenURI",
      "outputs": [
        {
          "internalType": "string",
          "name": "",
          "type": "string"
        }
      ],
      "stateMutability": "view",
      "type": "function"
    },
    {
      "inputs": [],
      "name": "totalSupply",
      "outputs": [
        {
          "internalType": "uint256",
          "name": "",
          "type": "uint256"
        }
      ],
      "stateMutability": "view",
      "type": "function"
    },
    {
      "inputs": [
        {
          "internalType": "address",
          "name": "from",
          "type": "address"
        },
        {
          "internalType": "address",
          "name": "to",
          "type": "address"
        },
        {
          "internalType": "uint256",
          "name": "tokenId",
          "type": "uint256"
        }
      ],
      "name": "transferFrom",
      "outputs": [],
      "stateMutability": "nonpayable",
      "type": "function"
    },
    {
      "inputs": [
        {
          "internalType": "address",
          "name": "newOwner",
          "type": "address"
        }
      ],
      "name": "transferOwnership",
      "outputs": [],
      "stateMutability": "nonpayable",
      "type": "function"
    }
  ],
  "bytecode": "0x60806040526000600f553480156200001657600080fd5b50604051620052483803806200524883398181016040528101906200003c9190620002fa565b6040518060400160405280600481526020017f50757373000000000000000000000000000000000000000000000000000000008152506040518060400160405280600481526020017f50555353000000000000000000000000000000000000000000000000000000008152508160009080519060200190620000c092919062000233565b508060019080519060200190620000d992919062000233565b505050620000fc620000f06200016560201b60201c565b6200016d60201b60201c565b80600e60006101000a81548173ffffffffffffffffffffffffffffffffffffffff021916908373ffffffffffffffffffffffffffffffffffffffff1602179055506103e8600b8190555067016345785d8a0000600c819055506103e8600d8190555050620003d9565b600033905090565b6000600a60009054906101000a900473ffffffffffffffffffffffffffffffffffffffff16905081600a60006101000a81548173ffffffffffffffffffffffffffffffffffffffff021916908373ffffffffffffffffffffffffffffffffffffffff1602179055508173ffffffffffffffffffffffffffffffffffffffff168173ffffffffffffffffffffffffffffffffffffffff167f8be0079c531659141344cd1fd0a4f28419497f9722a3daafe3b4186f6b6457e060405160405180910390a35050565b82805462000241906200035a565b90600052602060002090601f016020900481019282620002655760008555620002b1565b82601f106200028057805160ff1916838001178555620002b1565b82800160010185558215620002b1579182015b82811115620002b057825182559160200191906001019062000293565b5b509050620002c09190620002c4565b5090565b5b80821115620002df576000816000905550600101620002c5565b5090565b600081519050620002f481620003bf565b92915050565b6000602082840312156200030d57600080fd5b60006200031d84828501620002e3565b91505092915050565b600062000333826200033a565b9050919050565b600073ffffffffffffffffffffffffffffffffffffffff82169050919050565b600060028204905060018216806200037357607f821691505b602082108114156200038a576200038962000390565b5b50919050565b7f4e487b7100000000000000000000000000000000000000000000000000000000600052602260045260246000fd5b620003ca8162000326565b8114620003d657600080fd5b50565b614e5f80620003e96000396000f3fe6080604052600436106101c25760003560e01c806364555475116100f757806395d89b4111610095578063c87b56dd11610064578063c87b56dd14610680578063d5abeb01146106bd578063e985e9c5146106e8578063f2fde38b14610725576101c2565b806395d89b41146105c6578063a22cb465146105f1578063b61635c51461061a578063b88d4fde14610657576101c2565b8063715018a6116100d1578063715018a61461051e57806385d5cba4146105355780638d7388fd1461055e5780638da5cb5b1461059b576101c2565b8063645554751461049a5780636817c76c146104b657806370a08231146104e1576101c2565b806323b872dd116101645780633c8f59901161013e5780633c8f5990146103b757806342842e0e146103f75780634f6ccce7146104205780636352211e1461045d576101c2565b806323b872dd14610328578063270dc9fd146103515780632f745c591461037a576101c2565b8063081812fc116101a0578063081812fc1461026c578063095ea7b3146102a95780630e642c5a146102d257806318160ddd146102fd576101c2565b806301ffc9a7146101c7578063022914a71461020457806306fdde0314610241575b600080fd5b3480156101d357600080fd5b506101ee60048036038101906101e991906135b9565b61074e565b6040516101fb9190613e47565b60405180910390f35b34801561021057600080fd5b5061022b600480360381019061022691906133a4565b6107c8565b60405161023891906141e4565b60405180910390f35b34801561024d57600080fd5b506102566107e0565b6040516102639190613e62565b60405180910390f35b34801561027857600080fd5b50610293600480360381019061028e919061365f565b610872565b6040516102a09190613d3c565b60405180910390f35b3480156102b557600080fd5b506102d060048036038101906102cb919061350f565b6108f7565b005b3480156102de57600080fd5b506102e7610a0f565b6040516102f491906141e4565b60405180910390f35b34801561030957600080fd5b50610312610a15565b60405161031f91906141e4565b60405180910390f35b34801561033457600080fd5b5061034f600480360381019061034a9190613409565b610a22565b005b34801561035d57600080fd5b506103786004803603810190610373919061360b565b610a82565b005b34801561038657600080fd5b506103a1600480360381019061039c919061350f565b610d05565b6040516103ae91906141e4565b60405180910390f35b3480156103c357600080fd5b506103de60048036038101906103d9919061365f565b610daa565b6040516103ee9493929190614258565b60405180910390f35b34801561040357600080fd5b5061041e60048036038101906104199190613409565b610e62565b005b34801561042c57600080fd5b506104476004803603810190610442919061365f565b610e82565b60405161045491906141e4565b60405180910390f35b34801561046957600080fd5b50610484600480360381019061047f919061365f565b610f19565b6040516104919190613d3c565b60405180910390f35b6104b460048036038101906104af919061365f565b610fcb565b005b3480156104c257600080fd5b506104cb611250565b6040516104d891906141e4565b60405180910390f35b3480156104ed57600080fd5b50610508600480360381019061050391906133a4565b611256565b60405161051591906141e4565b60405180910390f35b34801561052a57600080fd5b5061053361130e565b005b34801561054157600080fd5b5061055c600480360381019061055791906136b1565b611396565b005b34801561056a57600080fd5b506105856004803603810190610580919061354b565b611663565b6040516105929190613e03565b60405180910390f35b3480156105a757600080fd5b506105b06118fc565b6040516105bd9190613d3c565b60405180910390f35b3480156105d257600080fd5b506105db611926565b6040516105e89190613e62565b60405180910390f35b3480156105fd57600080fd5b50610618600480360381019061061391906134d3565b6119b8565b005b34801561062657600080fd5b50610641600480360381019061063c91906133a4565b6119ce565b60405161064e9190613e25565b60405180910390f35b34801561066357600080fd5b5061067e60048036038101906106799190613458565b611b0b565b005b34801561068c57600080fd5b506106a760048036038101906106a2919061365f565b611b6d565b6040516106b49190613e62565b60405180910390f35b3480156106c957600080fd5b506106d2611c14565b6040516106df91906141e4565b60405180910390f35b3480156106f457600080fd5b5061070f600480360381019061070a91906133cd565b611c1a565b60405161071c9190613e47565b60405180910390f35b34801561073157600080fd5b5061074c600480360381019061074791906133a4565b611cae565b005b60007f780e9d63000000000000000000000000000000000000000000000000000000007bffffffffffffffffffffffffffffffffffffffffffffffffffffffff1916827bffffffffffffffffffffffffffffffffffffffffffffffffffffffff191614806107c157506107c082611da6565b5b9050919050565b60116020528060005260406000206000915090505481565b6060600080546107ef906145bc565b80601f016020809104026020016040519081016040528092919081815260200182805461081b906145bc565b80156108685780601f1061083d57610100808354040283529160200191610868565b820191906000526020600020905b81548152906001019060200180831161084b57829003601f168201915b5050505050905090565b600061087d82611e88565b6108bc576040517f08c379a00000000000000000000000000000000000000000000000000000000081526004016108b3906140a4565b60405180910390fd5b6004600083815260200190815260200160002060009054906101000a900473ffffffffffffffffffffffffffffffffffffffff169050919050565b600061090282610f19565b90508073ffffffffffffffffffffffffffffffffffffffff168373ffffffffffffffffffffffffffffffffffffffff161415610973576040517f08c379a000000000000000000000000000000000000000000000000000000000815260040161096a90614124565b60405180910390fd5b8073ffffffffffffffffffffffffffffffffffffffff16610992611ef4565b73ffffffffffffffffffffffffffffffffffffffff1614806109c157506109c0816109bb611ef4565b611c1a565b5b610a00576040517f08c379a00000000000000000000000000000000000000000000000000000000081526004016109f790613fe4565b60405180910390fd5b610a0a8383611efc565b505050565b600d5481565b6000600880549050905090565b610a33610a2d611ef4565b82611fb5565b610a72576040517f08c379a0000000000000000000000000000000000000000000000000000000008152600401610a6990614184565b60405180910390fd5b610a7d838383612093565b505050565b803373ffffffffffffffffffffffffffffffffffffffff16610aa382610f19565b73ffffffffffffffffffffffffffffffffffffffff1614610af9576040517f08c379a0000000000000000000000000000000000000000000000000000000008152600401610af090613fc4565b60405180910390fd5b600d54600e60009054906101000a900473ffffffffffffffffffffffffffffffffffffffff1673ffffffffffffffffffffffffffffffffffffffff166370a08231336040518263ffffffff1660e01b8152600401610b579190613d3c565b60206040518083038186803b158015610b6f57600080fd5b505afa158015610b83573d6000803e3d6000fd5b505050506040513d601f19601f82011682018060405250810190610ba79190613688565b1015610be8576040517f08c379a0000000000000000000000000000000000000000000000000000000008152600401610bdf90613ec4565b60405180910390fd5b600e60009054906101000a900473ffffffffffffffffffffffffffffffffffffffff1673ffffffffffffffffffffffffffffffffffffffff166323b872dd3330600d546040518463ffffffff1660e01b8152600401610c4993929190613d57565b602060405180830381600087803b158015610c6357600080fd5b505af1158015610c77573d6000803e3d6000fd5b505050506040513d601f19601f82011682018060405250810190610c9b9190613590565b5082601060008481526020019081526020016000206003019080519060200190610cc692919061312c565b507f8edfa912e70e283a8ef6d6f52cd1faef9690ff989eff2f11a134e8478ba7b28b8284604051610cf89291906141ff565b60405180910390a1505050565b6000610d1083611256565b8210610d51576040517f08c379a0000000000000000000000000000000000000000000000000000000008152600401610d4890613e84565b60405180910390fd5b600660008473ffffffffffffffffffffffffffffffffffffffff1673ffffffffffffffffffffffffffffffffffffffff168152602001908152602001600020600083815260200190815260200160002054905092915050565b6010602052806000526040600020600091509050806000015490806001015490806002015490806003018054610ddf906145bc565b80601f0160208091040260200160405190810160405280929190818152602001828054610e0b906145bc565b8015610e585780601f10610e2d57610100808354040283529160200191610e58565b820191906000526020600020905b815481529060010190602001808311610e3b57829003601f168201915b5050505050905084565b610e7d83838360405180602001604052806000815250611b0b565b505050565b6000610e8c610a15565b8210610ecd576040517f08c379a0000000000000000000000000000000000000000000000000000000008152600401610ec4906141c4565b60405180910390fd5b60088281548110610f07577f4e487b7100000000000000000000000000000000000000000000000000000000600052603260045260246000fd5b90600052602060002001549050919050565b6000806002600084815260200190815260200160002060009054906101000a900473ffffffffffffffffffffffffffffffffffffffff169050600073ffffffffffffffffffffffffffffffffffffffff168173ffffffffffffffffffffffffffffffffffffffff161415610fc2576040517f08c379a0000000000000000000000000000000000000000000000000000000008152600401610fb990614024565b60405180910390fd5b80915050919050565b6000811161100e576040517f08c379a000000000000000000000000000000000000000000000000000000000815260040161100590613f04565b60405180910390fd5b80600c5461101c9190614478565b341461105d576040517f08c379a000000000000000000000000000000000000000000000000000000000815260040161105490614144565b60405180910390fd5b6000611067610a15565b9050818161107591906143f1565b600b54116110b8576040517f08c379a00000000000000000000000000000000000000000000000000000000081526004016110af906141a4565b60405180910390fd5b60008060005b84811015611249576001846110d391906143f1565b935083925060016005856110e79190614668565b6110f191906143f1565b9150604051806080016040528060008152602001600081526020018381526020016040518060400160405280600581526020017f446f6c6c7900000000000000000000000000000000000000000000000000000081525081525060106000858152602001908152602001600020600082015181600001556020820151816001015560408201518160020155606082015181600301908051906020019061119892919061312c565b509050506001601160003373ffffffffffffffffffffffffffffffffffffffff1673ffffffffffffffffffffffffffffffffffffffff16815260200190815260200160002060008282546111ec91906143f1565b925050819055506111fd33846122fa565b7f0f6798a560793a54c3bcfe86a93cde1e73087d944c0ea20544137d4121396885338460405161122e929190613dda565b60405180910390a180806112419061461f565b9150506110be565b5050505050565b600c5481565b60008073ffffffffffffffffffffffffffffffffffffffff168273ffffffffffffffffffffffffffffffffffffffff1614156112c7576040517f08c379a00000000000000000000000000000000000000000000000000000000081526004016112be90614004565b60405180910390fd5b600360008373ffffffffffffffffffffffffffffffffffffffff1673ffffffffffffffffffffffffffffffffffffffff168152602001908152602001600020549050919050565b611316611ef4565b73ffffffffffffffffffffffffffffffffffffffff166113346118fc565b73ffffffffffffffffffffffffffffffffffffffff161461138a576040517f08c379a0000000000000000000000000000000000000000000000000000000008152600401611381906140c4565b60405180910390fd5b6113946000612318565b565b803373ffffffffffffffffffffffffffffffffffffffff166113b782610f19565b73ffffffffffffffffffffffffffffffffffffffff161461140d576040517f08c379a000000000000000000000000000000000000000000000000000000000815260040161140490613fc4565b60405180910390fd5b60008311611450576040517f08c379a000000000000000000000000000000000000000000000000000000000815260040161144790614044565b60405180910390fd5b82600e60009054906101000a900473ffffffffffffffffffffffffffffffffffffffff1673ffffffffffffffffffffffffffffffffffffffff166370a08231336040518263ffffffff1660e01b81526004016114ac9190613d3c565b60206040518083038186803b1580156114c457600080fd5b505afa1580156114d8573d6000803e3d6000fd5b505050506040513d601f19601f820116820180604052508101906114fc9190613688565b101561153d576040517f08c379a000000000000000000000000000000000000000000000000000000000815260040161153490613ec4565b60405180910390fd5b600e60009054906101000a900473ffffffffffffffffffffffffffffffffffffffff1673ffffffffffffffffffffffffffffffffffffffff166323b872dd3330866040518463ffffffff1660e01b815260040161159c93929190613d57565b602060405180830381600087803b1580156115b657600080fd5b505af11580156115ca573d6000803e3d6000fd5b505050506040513d601f19601f820116820180604052508101906115ee9190613590565b508260106000848152602001908152602001600020600101600082825461161591906143f1565b925050819055507f1bcc1120af7c339c9c5ef413b98f5a9c6d5ee66b4404de05a123ce1d90243455828460405161164d92919061422f565b60405180910390a161165e826123de565b505050565b6060600083839050116116ab576040517f08c379a00000000000000000000000000000000000000000000000000000000081526004016116a290614084565b60405180910390fd5b60008383905067ffffffffffffffff8111156116f0577f4e487b7100000000000000000000000000000000000000000000000000000000600052604160045260246000fd5b60405190808252806020026020018201604052801561172957816020015b6117166131b2565b81526020019060019003908161170e5790505b509050600080600090505b858590508110156118f057858582818110611778577f4e487b7100000000000000000000000000000000000000000000000000000000600052603260045260246000fd5b905060200201359150611789610a15565b8211156117cb576040517f08c379a00000000000000000000000000000000000000000000000000000000081526004016117c290614104565b60405180910390fd5b60106000838152602001908152602001600020604051806080016040529081600082015481526020016001820154815260200160028201548152602001600382018054611817906145bc565b80601f0160208091040260200160405190810160405280929190818152602001828054611843906145bc565b80156118905780601f1061186557610100808354040283529160200191611890565b820191906000526020600020905b81548152906001019060200180831161187357829003601f168201915b5050505050815250508382815181106118d2577f4e487b7100000000000000000000000000000000000000000000000000000000600052603260045260246000fd5b602002602001018190525080806118e89061461f565b915050611734565b50819250505092915050565b6000600a60009054906101000a900473ffffffffffffffffffffffffffffffffffffffff16905090565b606060018054611935906145bc565b80601f0160208091040260200160405190810160405280929190818152602001828054611961906145bc565b80156119ae5780601f10611983576101008083540402835291602001916119ae565b820191906000526020600020905b81548152906001019060200180831161199157829003601f168201915b5050505050905090565b6119ca6119c3611ef4565b83836124b0565b5050565b606060006119db83611256565b905060008111611a20576040517f08c379a0000000000000000000000000000000000000000000000000000000008152600401611a1790614164565b60405180910390fd5b60008167ffffffffffffffff811115611a62577f4e487b7100000000000000000000000000000000000000000000000000000000600052604160045260246000fd5b604051908082528060200260200182016040528015611a905781602001602082028036833780820191505090505b50905060005b82811015611b0057611aa88582610d05565b828281518110611ae1577f4e487b7100000000000000000000000000000000000000000000000000000000600052603260045260246000fd5b6020026020010181815250508080611af89061461f565b915050611a96565b508092505050919050565b611b1c611b16611ef4565b83611fb5565b611b5b576040517f08c379a0000000000000000000000000000000000000000000000000000000008152600401611b5290614184565b60405180910390fd5b611b678484848461261d565b50505050565b6060611b7882611e88565b611bb7576040517f08c379a0000000000000000000000000000000000000000000000000000000008152600401611bae906140e4565b60405180910390fd5b6000611bc1612679565b90506000815111611be15760405180602001604052806000815250611c0c565b80611beb84612690565b604051602001611bfc929190613d18565b6040516020818303038152906040525b915050919050565b600b5481565b6000600560008473ffffffffffffffffffffffffffffffffffffffff1673ffffffffffffffffffffffffffffffffffffffff16815260200190815260200160002060008373ffffffffffffffffffffffffffffffffffffffff1673ffffffffffffffffffffffffffffffffffffffff16815260200190815260200160002060009054906101000a900460ff16905092915050565b611cb6611ef4565b73ffffffffffffffffffffffffffffffffffffffff16611cd46118fc565b73ffffffffffffffffffffffffffffffffffffffff1614611d2a576040517f08c379a0000000000000000000000000000000000000000000000000000000008152600401611d21906140c4565b60405180910390fd5b600073ffffffffffffffffffffffffffffffffffffffff168173ffffffffffffffffffffffffffffffffffffffff161415611d9a576040517f08c379a0000000000000000000000000000000000000000000000000000000008152600401611d9190613ee4565b60405180910390fd5b611da381612318565b50565b60007f80ac58cd000000000000000000000000000000000000000000000000000000007bffffffffffffffffffffffffffffffffffffffffffffffffffffffff1916827bffffffffffffffffffffffffffffffffffffffffffffffffffffffff19161480611e7157507f5b5e139f000000000000000000000000000000000000000000000000000000007bffffffffffffffffffffffffffffffffffffffffffffffffffffffff1916827bffffffffffffffffffffffffffffffffffffffffffffffffffffffff1916145b80611e815750611e808261283d565b5b9050919050565b60008073ffffffffffffffffffffffffffffffffffffffff166002600084815260200190815260200160002060009054906101000a900473ffffffffffffffffffffffffffffffffffffffff1673ffffffffffffffffffffffffffffffffffffffff1614159050919050565b600033905090565b816004600083815260200190815260200160002060006101000a81548173ffffffffffffffffffffffffffffffffffffffff021916908373ffffffffffffffffffffffffffffffffffffffff160217905550808273ffffffffffffffffffffffffffffffffffffffff16611f6f83610f19565b73ffffffffffffffffffffffffffffffffffffffff167f8c5be1e5ebec7d5bd14f71427d1e84f3dd0314c0f7b2291e5b200ac8c7c3b92560405160405180910390a45050565b6000611fc082611e88565b611fff576040517f08c379a0000000000000000000000000000000000000000000000000000000008152600401611ff690613fa4565b60405180910390fd5b600061200a83610f19565b90508073ffffffffffffffffffffffffffffffffffffffff168473ffffffffffffffffffffffffffffffffffffffff16148061207957508373ffffffffffffffffffffffffffffffffffffffff1661206184610872565b73ffffffffffffffffffffffffffffffffffffffff16145b8061208a57506120898185611c1a565b5b91505092915050565b8273ffffffffffffffffffffffffffffffffffffffff166120b382610f19565b73ffffffffffffffffffffffffffffffffffffffff1614612109576040517f08c379a000000000000000000000000000000000000000000000000000000000815260040161210090613f24565b60405180910390fd5b600073ffffffffffffffffffffffffffffffffffffffff168273ffffffffffffffffffffffffffffffffffffffff161415612179576040517f08c379a000000000000000000000000000000000000000000000000000000000815260040161217090613f64565b60405180910390fd5b6121848383836128a7565b61218f600082611efc565b6001600360008573ffffffffffffffffffffffffffffffffffffffff1673ffffffffffffffffffffffffffffffffffffffff16815260200190815260200160002060008282546121df91906144d2565b925050819055506001600360008473ffffffffffffffffffffffffffffffffffffffff1673ffffffffffffffffffffffffffffffffffffffff168152602001908152602001600020600082825461223691906143f1565b92505081905550816002600083815260200190815260200160002060006101000a81548173ffffffffffffffffffffffffffffffffffffffff021916908373ffffffffffffffffffffffffffffffffffffffff160217905550808273ffffffffffffffffffffffffffffffffffffffff168473ffffffffffffffffffffffffffffffffffffffff167fddf252ad1be2c89b69c2b068fc378daa952ba7f163c4a11628f55a4df523b3ef60405160405180910390a46122f58383836129bb565b505050565b6123148282604051806020016040528060008152506129c0565b5050565b6000600a60009054906101000a900473ffffffffffffffffffffffffffffffffffffffff16905081600a60006101000a81548173ffffffffffffffffffffffffffffffffffffffff021916908373ffffffffffffffffffffffffffffffffffffffff1602179055508173ffffffffffffffffffffffffffffffffffffffff168173ffffffffffffffffffffffffffffffffffffffff167f8be0079c531659141344cd1fd0a4f28419497f9722a3daafe3b4186f6b6457e060405160405180910390a35050565b60106000828152602001908152602001600020600001546103e860106000848152602001908152602001600020600101546124199190614447565b11156124ad576103e860106000838152602001908152602001600020600101546124439190614447565b60106000838152602001908152602001600020600001819055507f3b7ca85b5e3d1ebb3a81e8d9e27bfeb9ef2f447026c115421132a20b0733b73f8160106000848152602001908152602001600020600001546040516124a492919061422f565b60405180910390a15b50565b8173ffffffffffffffffffffffffffffffffffffffff168373ffffffffffffffffffffffffffffffffffffffff16141561251f576040517f08c379a000000000000000000000000000000000000000000000000000000000815260040161251690613f84565b60405180910390fd5b80600560008573ffffffffffffffffffffffffffffffffffffffff1673ffffffffffffffffffffffffffffffffffffffff16815260200190815260200160002060008473ffffffffffffffffffffffffffffffffffffffff1673ffffffffffffffffffffffffffffffffffffffff16815260200190815260200160002060006101000a81548160ff0219169083151502179055508173ffffffffffffffffffffffffffffffffffffffff168373ffffffffffffffffffffffffffffffffffffffff167f17307eab39ab6107e8899845ad3d59bd9653f200f220920489ca2b5937696c31836040516126109190613e47565b60405180910390a3505050565b612628848484612093565b61263484848484612a1b565b612673576040517f08c379a000000000000000000000000000000000000000000000000000000000815260040161266a90613ea4565b60405180910390fd5b50505050565b606060405180602001604052806000815250905090565b606060008214156126d8576040518060400160405280600181526020017f30000000000000000000000000000000000000000000000000000000000000008152509050612838565b600082905060005b6000821461270a5780806126f39061461f565b915050600a826127039190614447565b91506126e0565b60008167ffffffffffffffff81111561274c577f4e487b7100000000000000000000000000000000000000000000000000000000600052604160045260246000fd5b6040519080825280601f01601f19166020018201604052801561277e5781602001600182028036833780820191505090505b5090505b600085146128315760018261279791906144d2565b9150600a856127a69190614668565b60306127b291906143f1565b60f81b8183815181106127ee577f4e487b7100000000000000000000000000000000000000000000000000000000600052603260045260246000fd5b60200101907effffffffffffffffffffffffffffffffffffffffffffffffffffffffffffff1916908160001a905350600a8561282a9190614447565b9450612782565b8093505050505b919050565b60007f01ffc9a7000000000000000000000000000000000000000000000000000000007bffffffffffffffffffffffffffffffffffffffffffffffffffffffff1916827bffffffffffffffffffffffffffffffffffffffffffffffffffffffff1916149050919050565b6128b2838383612bb2565b600073ffffffffffffffffffffffffffffffffffffffff168373ffffffffffffffffffffffffffffffffffffffff1614156128f5576128f081612bb7565b612934565b8173ffffffffffffffffffffffffffffffffffffffff168373ffffffffffffffffffffffffffffffffffffffff1614612933576129328382612c00565b5b5b600073ffffffffffffffffffffffffffffffffffffffff168273ffffffffffffffffffffffffffffffffffffffff1614156129775761297281612d6d565b6129b6565b8273ffffffffffffffffffffffffffffffffffffffff168273ffffffffffffffffffffffffffffffffffffffff16146129b5576129b48282612eb0565b5b5b505050565b505050565b6129ca8383612f2f565b6129d76000848484612a1b565b612a16576040517f08c379a0000000000000000000000000000000000000000000000000000000008152600401612a0d90613ea4565b60405180910390fd5b505050565b6000612a3c8473ffffffffffffffffffffffffffffffffffffffff16613109565b15612ba5578373ffffffffffffffffffffffffffffffffffffffff1663150b7a02612a65611ef4565b8786866040518563ffffffff1660e01b8152600401612a879493929190613d8e565b602060405180830381600087803b158015612aa157600080fd5b505af1925050508015612ad257506040513d601f19601f82011682018060405250810190612acf91906135e2565b60015b612b55573d8060008114612b02576040519150601f19603f3d011682016040523d82523d6000602084013e612b07565b606091505b50600081511415612b4d576040517f08c379a0000000000000000000000000000000000000000000000000000000008152600401612b4490613ea4565b60405180910390fd5b805181602001fd5b63150b7a0260e01b7bffffffffffffffffffffffffffffffffffffffffffffffffffffffff1916817bffffffffffffffffffffffffffffffffffffffffffffffffffffffff191614915050612baa565b600190505b949350505050565b505050565b6008805490506009600083815260200190815260200160002081905550600881908060018154018082558091505060019003906000526020600020016000909190919091505550565b60006001612c0d84611256565b612c1791906144d2565b9050600060076000848152602001908152602001600020549050818114612cfc576000600660008673ffffffffffffffffffffffffffffffffffffffff1673ffffffffffffffffffffffffffffffffffffffff168152602001908152602001600020600084815260200190815260200160002054905080600660008773ffffffffffffffffffffffffffffffffffffffff1673ffffffffffffffffffffffffffffffffffffffff168152602001908152602001600020600084815260200190815260200160002081905550816007600083815260200190815260200160002081905550505b6007600084815260200190815260200160002060009055600660008573ffffffffffffffffffffffffffffffffffffffff1673ffffffffffffffffffffffffffffffffffffffff16815260200190815260200160002060008381526020019081526020016000206000905550505050565b60006001600880549050612d8191906144d2565b9050600060096000848152602001908152602001600020549050600060088381548110612dd7577f4e487b7100000000000000000000000000000000000000000000000000000000600052603260045260246000fd5b906000526020600020015490508060088381548110612e1f577f4e487b7100000000000000000000000000000000000000000000000000000000600052603260045260246000fd5b906000526020600020018190555081600960008381526020019081526020016000208190555060096000858152602001908152602001600020600090556008805480612e94577f4e487b7100000000000000000000000000000000000000000000000000000000600052603160045260246000fd5b6001900381819060005260206000200160009055905550505050565b6000612ebb83611256565b905081600660008573ffffffffffffffffffffffffffffffffffffffff1673ffffffffffffffffffffffffffffffffffffffff168152602001908152602001600020600083815260200190815260200160002081905550806007600084815260200190815260200160002081905550505050565b600073ffffffffffffffffffffffffffffffffffffffff168273ffffffffffffffffffffffffffffffffffffffff161415612f9f576040517f08c379a0000000000000000000000000000000000000000000000000000000008152600401612f9690614064565b60405180910390fd5b612fa881611e88565b15612fe8576040517f08c379a0000000000000000000000000000000000000000000000000000000008152600401612fdf90613f44565b60405180910390fd5b612ff4600083836128a7565b6001600360008473ffffffffffffffffffffffffffffffffffffffff1673ffffffffffffffffffffffffffffffffffffffff168152602001908152602001600020600082825461304491906143f1565b92505081905550816002600083815260200190815260200160002060006101000a81548173ffffffffffffffffffffffffffffffffffffffff021916908373ffffffffffffffffffffffffffffffffffffffff160217905550808273ffffffffffffffffffffffffffffffffffffffff16600073ffffffffffffffffffffffffffffffffffffffff167fddf252ad1be2c89b69c2b068fc378daa952ba7f163c4a11628f55a4df523b3ef60405160405180910390a4613105600083836129bb565b5050565b6000808273ffffffffffffffffffffffffffffffffffffffff163b119050919050565b828054613138906145bc565b90600052602060002090601f01602090048101928261315a57600085556131a1565b82601f1061317357805160ff19168380011785556131a1565b828001600101855582156131a1579182015b828111156131a0578251825591602001919060010190613185565b5b5090506131ae91906131da565b5090565b6040518060800160405280600081526020016000815260200160008152602001606081525090565b5b808211156131f35760008160009055506001016131db565b5090565b600061320a613205846142c9565b6142a4565b90508281526020810184848401111561322257600080fd5b61322d84828561457a565b509392505050565b6000613248613243846142fa565b6142a4565b90508281526020810184848401111561326057600080fd5b61326b84828561457a565b509392505050565b60008135905061328281614dcd565b92915050565b60008083601f84011261329a57600080fd5b8235905067ffffffffffffffff8111156132b357600080fd5b6020830191508360208202830111156132cb57600080fd5b9250929050565b6000813590506132e181614de4565b92915050565b6000815190506132f681614de4565b92915050565b60008135905061330b81614dfb565b92915050565b60008151905061332081614dfb565b92915050565b600082601f83011261333757600080fd5b81356133478482602086016131f7565b91505092915050565b600082601f83011261336157600080fd5b8135613371848260208601613235565b91505092915050565b60008135905061338981614e12565b92915050565b60008151905061339e81614e12565b92915050565b6000602082840312156133b657600080fd5b60006133c484828501613273565b91505092915050565b600080604083850312156133e057600080fd5b60006133ee85828601613273565b92505060206133ff85828601613273565b9150509250929050565b60008060006060848603121561341e57600080fd5b600061342c86828701613273565b935050602061343d86828701613273565b925050604061344e8682870161337a565b9150509250925092565b6000806000806080858703121561346e57600080fd5b600061347c87828801613273565b945050602061348d87828801613273565b935050604061349e8782880161337a565b925050606085013567ffffffffffffffff8111156134bb57600080fd5b6134c787828801613326565b91505092959194509250565b600080604083850312156134e657600080fd5b60006134f485828601613273565b9250506020613505858286016132d2565b9150509250929050565b6000806040838503121561352257600080fd5b600061353085828601613273565b92505060206135418582860161337a565b9150509250929050565b6000806020838503121561355e57600080fd5b600083013567ffffffffffffffff81111561357857600080fd5b61358485828601613288565b92509250509250929050565b6000602082840312156135a257600080fd5b60006135b0848285016132e7565b91505092915050565b6000602082840312156135cb57600080fd5b60006135d9848285016132fc565b91505092915050565b6000602082840312156135f457600080fd5b600061360284828501613311565b91505092915050565b6000806040838503121561361e57600080fd5b600083013567ffffffffffffffff81111561363857600080fd5b61364485828601613350565b92505060206136558582860161337a565b9150509250929050565b60006020828403121561367157600080fd5b600061367f8482850161337a565b91505092915050565b60006020828403121561369a57600080fd5b60006136a88482850161338f565b91505092915050565b600080604083850312156136c457600080fd5b60006136d28582860161337a565b92505060206136e38582860161337a565b9150509250929050565b60006136f98383613c97565b905092915050565b600061370d8383613cfa565b60208301905092915050565b61372281614506565b82525050565b60006137338261434b565b61373d8185614391565b93508360208202850161374f8561432b565b8060005b8581101561378b578484038952815161376c85826136ed565b945061377783614377565b925060208a01995050600181019050613753565b50829750879550505050505092915050565b60006137a882614356565b6137b281856143a2565b93506137bd8361433b565b8060005b838110156137ee5781516137d58882613701565b97506137e083614384565b9250506001810190506137c1565b5085935050505092915050565b61380481614518565b82525050565b600061381582614361565b61381f81856143b3565b935061382f818560208601614589565b61383881614755565b840191505092915050565b600061384e8261436c565b61385881856143c4565b9350613868818560208601614589565b61387181614755565b840191505092915050565b60006138878261436c565b61389181856143d5565b93506138a1818560208601614589565b6138aa81614755565b840191505092915050565b60006138c08261436c565b6138ca81856143e6565b93506138da818560208601614589565b80840191505092915050565b60006138f3602b836143d5565b91506138fe82614766565b604082019050919050565b60006139166032836143d5565b9150613921826147b5565b604082019050919050565b6000613939601a836143d5565b915061394482614804565b602082019050919050565b600061395c6026836143d5565b91506139678261482d565b604082019050919050565b600061397f6012836143d5565b915061398a8261487c565b602082019050919050565b60006139a26025836143d5565b91506139ad826148a5565b604082019050919050565b60006139c5601c836143d5565b91506139d0826148f4565b602082019050919050565b60006139e86024836143d5565b91506139f38261491d565b604082019050919050565b6000613a0b6019836143d5565b9150613a168261496c565b602082019050919050565b6000613a2e602c836143d5565b9150613a3982614995565b604082019050919050565b6000613a516018836143d5565b9150613a5c826149e4565b602082019050919050565b6000613a746038836143d5565b9150613a7f82614a0d565b604082019050919050565b6000613a97602a836143d5565b9150613aa282614a5c565b604082019050919050565b6000613aba6029836143d5565b9150613ac582614aab565b604082019050919050565b6000613add6015836143d5565b9150613ae882614afa565b602082019050919050565b6000613b006020836143d5565b9150613b0b82614b23565b602082019050919050565b6000613b236012836143d5565b9150613b2e82614b4c565b602082019050919050565b6000613b46602c836143d5565b9150613b5182614b75565b604082019050919050565b6000613b696020836143d5565b9150613b7482614bc4565b602082019050919050565b6000613b8c602f836143d5565b9150613b9782614bed565b604082019050919050565b6000613baf6010836143d5565b9150613bba82614c3c565b602082019050919050565b6000613bd26021836143d5565b9150613bdd82614c65565b604082019050919050565b6000613bf56014836143d5565b9150613c0082614cb4565b602082019050919050565b6000613c18600c836143d5565b9150613c2382614cdd565b602082019050919050565b6000613c3b6031836143d5565b9150613c4682614d06565b604082019050919050565b6000613c5e6008836143d5565b9150613c6982614d55565b602082019050919050565b6000613c81602c836143d5565b9150613c8c82614d7e565b604082019050919050565b6000608083016000830151613caf6000860182613cfa565b506020830151613cc26020860182613cfa565b506040830151613cd56040860182613cfa565b5060608301518482036060860152613ced8282613843565b9150508091505092915050565b613d0381614570565b82525050565b613d1281614570565b82525050565b6000613d2482856138b5565b9150613d3082846138b5565b91508190509392505050565b6000602082019050613d516000830184613719565b92915050565b6000606082019050613d6c6000830186613719565b613d796020830185613719565b613d866040830184613d09565b949350505050565b6000608082019050613da36000830187613719565b613db06020830186613719565b613dbd6040830185613d09565b8181036060830152613dcf818461380a565b905095945050505050565b6000604082019050613def6000830185613719565b613dfc6020830184613d09565b9392505050565b60006020820190508181036000830152613e1d8184613728565b905092915050565b60006020820190508181036000830152613e3f818461379d565b905092915050565b6000602082019050613e5c60008301846137fb565b92915050565b60006020820190508181036000830152613e7c818461387c565b905092915050565b60006020820190508181036000830152613e9d816138e6565b9050919050565b60006020820190508181036000830152613ebd81613909565b9050919050565b60006020820190508181036000830152613edd8161392c565b9050919050565b60006020820190508181036000830152613efd8161394f565b9050919050565b60006020820190508181036000830152613f1d81613972565b9050919050565b60006020820190508181036000830152613f3d81613995565b9050919050565b60006020820190508181036000830152613f5d816139b8565b9050919050565b60006020820190508181036000830152613f7d816139db565b9050919050565b60006020820190508181036000830152613f9d816139fe565b9050919050565b60006020820190508181036000830152613fbd81613a21565b9050919050565b60006020820190508181036000830152613fdd81613a44565b9050919050565b60006020820190508181036000830152613ffd81613a67565b9050919050565b6000602082019050818103600083015261401d81613a8a565b9050919050565b6000602082019050818103600083015261403d81613aad565b9050919050565b6000602082019050818103600083015261405d81613ad0565b9050919050565b6000602082019050818103600083015261407d81613af3565b9050919050565b6000602082019050818103600083015261409d81613b16565b9050919050565b600060208201905081810360008301526140bd81613b39565b9050919050565b600060208201905081810360008301526140dd81613b5c565b9050919050565b600060208201905081810360008301526140fd81613b7f565b9050919050565b6000602082019050818103600083015261411d81613ba2565b9050919050565b6000602082019050818103600083015261413d81613bc5565b9050919050565b6000602082019050818103600083015261415d81613be8565b9050919050565b6000602082019050818103600083015261417d81613c0b565b9050919050565b6000602082019050818103600083015261419d81613c2e565b9050919050565b600060208201905081810360008301526141bd81613c51565b9050919050565b600060208201905081810360008301526141dd81613c74565b9050919050565b60006020820190506141f96000830184613d09565b92915050565b60006040820190506142146000830185613d09565b8181036020830152614226818461387c565b90509392505050565b60006040820190506142446000830185613d09565b6142516020830184613d09565b9392505050565b600060808201905061426d6000830187613d09565b61427a6020830186613d09565b6142876040830185613d09565b8181036060830152614299818461387c565b905095945050505050565b60006142ae6142bf565b90506142ba82826145ee565b919050565b6000604051905090565b600067ffffffffffffffff8211156142e4576142e3614726565b5b6142ed82614755565b9050602081019050919050565b600067ffffffffffffffff82111561431557614314614726565b5b61431e82614755565b9050602081019050919050565b6000819050602082019050919050565b6000819050602082019050919050565b600081519050919050565b600081519050919050565b600081519050919050565b600081519050919050565b6000602082019050919050565b6000602082019050919050565b600082825260208201905092915050565b600082825260208201905092915050565b600082825260208201905092915050565b600082825260208201905092915050565b600082825260208201905092915050565b600081905092915050565b60006143fc82614570565b915061440783614570565b9250827fffffffffffffffffffffffffffffffffffffffffffffffffffffffffffffffff0382111561443c5761443b614699565b5b828201905092915050565b600061445282614570565b915061445d83614570565b92508261446d5761446c6146c8565b5b828204905092915050565b600061448382614570565b915061448e83614570565b9250817fffffffffffffffffffffffffffffffffffffffffffffffffffffffffffffffff04831182151516156144c7576144c6614699565b5b828202905092915050565b60006144dd82614570565b91506144e883614570565b9250828210156144fb576144fa614699565b5b828203905092915050565b600061451182614550565b9050919050565b60008115159050919050565b60007fffffffff0000000000000000000000000000000000000000000000000000000082169050919050565b600073ffffffffffffffffffffffffffffffffffffffff82169050919050565b6000819050919050565b82818337600083830152505050565b60005b838110156145a757808201518184015260208101905061458c565b838111156145b6576000848401525b50505050565b600060028204905060018216806145d457607f821691505b602082108114156145e8576145e76146f7565b5b50919050565b6145f782614755565b810181811067ffffffffffffffff8211171561461657614615614726565b5b80604052505050565b600061462a82614570565b91507fffffffffffffffffffffffffffffffffffffffffffffffffffffffffffffffff82141561465d5761465c614699565b5b600182019050919050565b600061467382614570565b915061467e83614570565b92508261468e5761468d6146c8565b5b828206905092915050565b7f4e487b7100000000000000000000000000000000000000000000000000000000600052601160045260246000fd5b7f4e487b7100000000000000000000000000000000000000000000000000000000600052601260045260246000fd5b7f4e487b7100000000000000000000000000000000000000000000000000000000600052602260045260246000fd5b7f4e487b7100000000000000000000000000000000000000000000000000000000600052604160045260246000fd5b6000601f19601f8301169050919050565b7f455243373231456e756d657261626c653a206f776e657220696e646578206f7560008201527f74206f6620626f756e6473000000000000000000000000000000000000000000602082015250565b7f4552433732313a207472616e7366657220746f206e6f6e20455243373231526560008201527f63656976657220696d706c656d656e7465720000000000000000000000000000602082015250565b7f596f7520646f6e2774206f776e20656e6f756768206772617679000000000000600082015250565b7f4f776e61626c653a206e6577206f776e657220697320746865207a65726f206160008201527f6464726573730000000000000000000000000000000000000000000000000000602082015250565b7f43616e6e6f74206d696e74203020507573730000000000000000000000000000600082015250565b7f4552433732313a207472616e736665722066726f6d20696e636f72726563742060008201527f6f776e6572000000000000000000000000000000000000000000000000000000602082015250565b7f4552433732313a20746f6b656e20616c7265616479206d696e74656400000000600082015250565b7f4552433732313a207472616e7366657220746f20746865207a65726f2061646460008201527f7265737300000000000000000000000000000000000000000000000000000000602082015250565b7f4552433732313a20617070726f766520746f2063616c6c657200000000000000600082015250565b7f4552433732313a206f70657261746f7220717565727920666f72206e6f6e657860008201527f697374656e7420746f6b656e0000000000000000000000000000000000000000602082015250565b7f596f7520646f206e6f74206f776e207468697320507573730000000000000000600082015250565b7f4552433732313a20617070726f76652063616c6c6572206973206e6f74206f7760008201527f6e6572206e6f7220617070726f76656420666f7220616c6c0000000000000000602082015250565b7f4552433732313a2062616c616e636520717565727920666f7220746865207a6560008201527f726f206164647265737300000000000000000000000000000000000000000000602082015250565b7f4552433732313a206f776e657220717565727920666f72206e6f6e657869737460008201527f656e7420746f6b656e0000000000000000000000000000000000000000000000602082015250565b7f596f752063616e27742065617420302067726176790000000000000000000000600082015250565b7f4552433732313a206d696e7420746f20746865207a65726f2061646472657373600082015250565b7f4e6f20746f6b656e732070726f76696465640000000000000000000000000000600082015250565b7f4552433732313a20617070726f76656420717565727920666f72206e6f6e657860008201527f697374656e7420746f6b656e0000000000000000000000000000000000000000602082015250565b7f4f776e61626c653a2063616c6c6572206973206e6f7420746865206f776e6572600082015250565b7f4552433732314d657461646174613a2055524920717565727920666f72206e6f60008201527f6e6578697374656e7420746f6b656e0000000000000000000000000000000000602082015250565b7f496e76616c696420746f6b656e20494400000000000000000000000000000000600082015250565b7f4552433732313a20617070726f76616c20746f2063757272656e74206f776e6560008201527f7200000000000000000000000000000000000000000000000000000000000000602082015250565b7f57726f6e6720707269636520737570706c696564000000000000000000000000600082015250565b7f4e6f20507573732068656c640000000000000000000000000000000000000000600082015250565b7f4552433732313a207472616e736665722063616c6c6572206973206e6f74206f60008201527f776e6572206e6f7220617070726f766564000000000000000000000000000000602082015250565b7f536f6c64206f7574000000000000000000000000000000000000000000000000600082015250565b7f455243373231456e756d657261626c653a20676c6f62616c20696e646578206f60008201527f7574206f6620626f756e64730000000000000000000000000000000000000000602082015250565b614dd681614506565b8114614de157600080fd5b50565b614ded81614518565b8114614df857600080fd5b50565b614e0481614524565b8114614e0f57600080fd5b50565b614e1b81614570565b8114614e2657600080fd5b5056fea2646970667358221220378c57f1c8b81e331bba4155a00259a10f8d9afe180974386ddf3a940a1fb01364736f6c63430008040033",
  "linkReferences": {},
  "deployedLinkReferences": {}
}