{
  "_format": "hh-sol-artifact-1",
  "contractName": "Stake",
  "sourceName": "contracts/Stake.sol",
  "abi": [
    {
      "inputs": [
        {
          "internalType": "address",
          "name": "_nftAddress",
          "type": "address"
        },
        {
          "internalType": "address",
          "name": "_tokenAddress",
          "type": "address"
        }
      ],
      "stateMutability": "nonpayable",
      "type": "constructor"
    },
    {
      "anonymous": false,
      "inputs": [
        {
          "indexed": false,
          "internalType": "address",
          "name": "owner",
          "type": "address"
        },
        {
          "indexed": false,
          "internalType": "uint256",
          "name": "amount",
          "type": "uint256"
        }
      ],
      "name": "GravyClaimed",
      "type": "event"
    },
    {
      "anonymous": false,
      "inputs": [
        {
          "indexed": true,
          "internalType": "address",
          "name": "previousOwner",
          "type": "address"
        },
        {
          "indexed": true,
          "internalType": "address",
          "name": "newOwner",
          "type": "address"
        }
      ],
      "name": "OwnershipTransferred",
      "type": "event"
    },
    {
      "anonymous": false,
      "inputs": [
        {
          "indexed": false,
          "internalType": "address",
          "name": "owner",
          "type": "address"
        },
        {
          "indexed": false,
          "internalType": "uint256",
          "name": "tokenId",
          "type": "uint256"
        }
      ],
      "name": "PussStaked",
      "type": "event"
    },
    {
      "anonymous": false,
      "inputs": [
        {
          "indexed": false,
          "internalType": "address",
          "name": "owner",
          "type": "address"
        },
        {
          "indexed": false,
          "internalType": "uint256",
          "name": "tokenId",
          "type": "uint256"
        }
      ],
      "name": "PussUnstaked",
      "type": "event"
    },
    {
      "inputs": [
        {
          "internalType": "address",
          "name": "_address",
          "type": "address"
        }
      ],
      "name": "GetAllHolderTokens",
      "outputs": [
        {
          "internalType": "uint256[]",
          "name": "",
          "type": "uint256[]"
        }
      ],
      "stateMutability": "view",
      "type": "function"
    },
    {
      "inputs": [
        {
          "internalType": "address",
          "name": "_address",
          "type": "address"
        }
      ],
      "name": "GetStakerData",
      "outputs": [
        {
          "components": [
            {
              "internalType": "uint256",
              "name": "amountStaked",
              "type": "uint256"
            },
            {
              "internalType": "uint256",
              "name": "timeOfLastUpdate",
              "type": "uint256"
            },
            {
              "internalType": "uint256",
              "name": "rewardsOwed",
              "type": "uint256"
            }
          ],
          "internalType": "struct Stake.Staker",
          "name": "",
          "type": "tuple"
        }
      ],
      "stateMutability": "view",
      "type": "function"
    },
    {
      "inputs": [
        {
          "internalType": "address",
          "name": "_address",
          "type": "address"
        }
      ],
      "name": "balanceOf",
      "outputs": [
        {
          "internalType": "uint256",
          "name": "",
          "type": "uint256"
        }
      ],
      "stateMutability": "view",
      "type": "function"
    },
    {
      "inputs": [
        {
          "internalType": "address",
          "name": "_address",
          "type": "address"
        }
      ],
      "name": "calculateRewards",
      "outputs": [
        {
          "internalType": "uint256",
          "name": "",
          "type": "uint256"
        }
      ],
      "stateMutability": "view",
      "type": "function"
    },
    {
      "inputs": [],
      "name": "claimRewards",
      "outputs": [],
      "stateMutability": "nonpayable",
      "type": "function"
    },
    {
      "inputs": [
        {
          "internalType": "address",
          "name": "",
          "type": "address"
        },
        {
          "internalType": "address",
          "name": "from",
          "type": "address"
        },
        {
          "internalType": "uint256",
          "name": "",
          "type": "uint256"
        },
        {
          "internalType": "bytes",
          "name": "",
          "type": "bytes"
        }
      ],
      "name": "onERC721Received",
      "outputs": [
        {
          "internalType": "bytes4",
          "name": "",
          "type": "bytes4"
        }
      ],
      "stateMutability": "pure",
      "type": "function"
    },
    {
      "inputs": [],
      "name": "owner",
      "outputs": [
        {
          "internalType": "address",
          "name": "",
          "type": "address"
        }
      ],
      "stateMutability": "view",
      "type": "function"
    },
    {
      "inputs": [],
      "name": "renounceOwnership",
      "outputs": [],
      "stateMutability": "nonpayable",
      "type": "function"
    },
    {
      "inputs": [
        {
          "internalType": "uint256",
          "name": "_rewardRate",
          "type": "uint256"
        }
      ],
      "name": "setRewardRate",
      "outputs": [],
      "stateMutability": "nonpayable",
      "type": "function"
    },
    {
      "inputs": [
        {
          "internalType": "uint256[]",
          "name": "_tokenIds",
          "type": "uint256[]"
        }
      ],
      "name": "stake",
      "outputs": [],
      "stateMutability": "nonpayable",
      "type": "function"
    },
    {
      "inputs": [
        {
          "internalType": "address",
          "name": "",
          "type": "address"
        }
      ],
      "name": "stakers",
      "outputs": [
        {
          "internalType": "uint256",
          "name": "amountStaked",
          "type": "uint256"
        },
        {
          "internalType": "uint256",
          "name": "timeOfLastUpdate",
          "type": "uint256"
        },
        {
          "internalType": "uint256",
          "name": "rewardsOwed",
          "type": "uint256"
        }
      ],
      "stateMutability": "view",
      "type": "function"
    },
    {
      "inputs": [
        {
          "internalType": "address",
          "name": "_ownerAddress",
          "type": "address"
        },
        {
          "internalType": "uint256",
          "name": "_index",
          "type": "uint256"
        }
      ],
      "name": "tokenOfOwnerByIndex",
      "outputs": [
        {
          "internalType": "uint256",
          "name": "",
          "type": "uint256"
        }
      ],
      "stateMutability": "view",
      "type": "function"
    },
    {
      "inputs": [],
      "name": "totalStaked",
      "outputs": [
        {
          "internalType": "uint256",
          "name": "",
          "type": "uint256"
        }
      ],
      "stateMutability": "view",
      "type": "function"
    },
    {
      "inputs": [
        {
          "internalType": "address",
          "name": "newOwner",
          "type": "address"
        }
      ],
      "name": "transferOwnership",
      "outputs": [],
      "stateMutability": "nonpayable",
      "type": "function"
    },
    {
      "inputs": [
        {
          "internalType": "uint256[]",
          "name": "tokenIds",
          "type": "uint256[]"
        }
      ],
      "name": "unstake",
      "outputs": [],
      "stateMutability": "nonpayable",
      "type": "function"
    },
    {
      "inputs": [
        {
          "internalType": "uint256",
          "name": "",
          "type": "uint256"
        }
      ],
      "name": "vault",
      "outputs": [
        {
          "internalType": "bool",
          "name": "",
          "type": "bool"
        }
      ],
      "stateMutability": "view",
      "type": "function"
    }
  ],
  "bytecode": "0x60806040523480156200001157600080fd5b5060405162002759380380620027598339818101604052810190620000379190620001cc565b620000576200004b620000e960201b60201c565b620000f160201b60201c565b81600460006101000a81548173ffffffffffffffffffffffffffffffffffffffff021916908373ffffffffffffffffffffffffffffffffffffffff16021790555080600360006101000a81548173ffffffffffffffffffffffffffffffffffffffff021916908373ffffffffffffffffffffffffffffffffffffffff160217905550600a60028190555050506200025b565b600033905090565b60008060009054906101000a900473ffffffffffffffffffffffffffffffffffffffff169050816000806101000a81548173ffffffffffffffffffffffffffffffffffffffff021916908373ffffffffffffffffffffffffffffffffffffffff1602179055508173ffffffffffffffffffffffffffffffffffffffff168173ffffffffffffffffffffffffffffffffffffffff167f8be0079c531659141344cd1fd0a4f28419497f9722a3daafe3b4186f6b6457e060405160405180910390a35050565b600081519050620001c68162000241565b92915050565b60008060408385031215620001e057600080fd5b6000620001f085828601620001b5565b92505060206200020385828601620001b5565b9150509250929050565b60006200021a8262000221565b9050919050565b600073ffffffffffffffffffffffffffffffffffffffff82169050919050565b6200024c816200020d565b81146200025857600080fd5b50565b6124ee806200026b6000396000f3fe608060405234801561001057600080fd5b50600436106101005760003560e01c8063817b1cd2116100975780639e447fc6116100665780639e447fc6146102c3578063b61635c5146102df578063e449f3411461030f578063f2fde38b1461032b57610100565b8063817b1cd21461022557806381a36fb6146102435780638da5cb5b146102735780639168ae721461029157610100565b806364ab8675116100d357806364ab86751461018b57806370a08231146101bb578063715018a6146101eb57806375f0a275146101f557610100565b80630fbf0a9314610105578063150b7a02146101215780632f745c5914610151578063372500ab14610181575b600080fd5b61011f600480360381019061011a9190611a49565b610347565b005b61013b6004803603810190610136919061198d565b610416565b6040516101489190611df3565b60405180910390f35b61016b60048036038101906101669190611a0d565b610499565b6040516101789190611f89565b60405180910390f35b610189610578565b005b6101a560048036038101906101a0919061193b565b6106ef565b6040516101b29190611f89565b60405180910390f35b6101d560048036038101906101d0919061193b565b6107b7565b6040516101e29190611f89565b60405180910390f35b6101f3610803565b005b61020f600480360381019061020a919061193b565b61088b565b60405161021c9190611f6e565b60405180910390f35b61022d610902565b60405161023a9190611f89565b60405180910390f35b61025d60048036038101906102589190611a8e565b610908565b60405161026a9190611dd8565b60405180910390f35b61027b610928565b6040516102889190611d3b565b60405180910390f35b6102ab60048036038101906102a6919061193b565b610951565b6040516102ba93929190611fa4565b60405180910390f35b6102dd60048036038101906102d89190611a8e565b61097b565b005b6102f960048036038101906102f4919061193b565b610a44565b6040516103069190611db6565b60405180910390f35b61032960048036038101906103249190611a49565b610bbb565b005b6103456004803603810190610340919061193b565b610d0f565b005b610350336106ef565b600560003373ffffffffffffffffffffffffffffffffffffffff1673ffffffffffffffffffffffffffffffffffffffff16815260200190815260200160002060020160008282546103a19190612025565b9250508190555060005b82829050811015610411576103fe8383838181106103f2577f4e487b7100000000000000000000000000000000000000000000000000000000600052603260045260246000fd5b90506020020135610e07565b8080610409906121ae565b9150506103ab565b505050565b60008073ffffffffffffffffffffffffffffffffffffffff168573ffffffffffffffffffffffffffffffffffffffff1614610486576040517f08c379a000000000000000000000000000000000000000000000000000000000815260040161047d90611f4e565b60405180910390fd5b63150b7a0260e01b905095945050505050565b6000600560008473ffffffffffffffffffffffffffffffffffffffff1673ffffffffffffffffffffffffffffffffffffffff16815260200190815260200160002060000154821061051f576040517f08c379a000000000000000000000000000000000000000000000000000000000815260040161051690611eee565b60405180910390fd5b600760008473ffffffffffffffffffffffffffffffffffffffff1673ffffffffffffffffffffffffffffffffffffffff168152602001908152602001600020600083815260200190815260200160002054905092915050565b6000610583336106ef565b600560003373ffffffffffffffffffffffffffffffffffffffff1673ffffffffffffffffffffffffffffffffffffffff168152602001908152602001600020600201546105d09190612025565b905060008111610615576040517f08c379a000000000000000000000000000000000000000000000000000000000815260040161060c90611e8e565b60405180910390fd5b6000600560003373ffffffffffffffffffffffffffffffffffffffff1673ffffffffffffffffffffffffffffffffffffffff16815260200190815260200160002060020181905550600360009054906101000a900473ffffffffffffffffffffffffffffffffffffffff1673ffffffffffffffffffffffffffffffffffffffff166340c10f1933836040518363ffffffff1660e01b81526004016106ba929190611d8d565b600060405180830381600087803b1580156106d457600080fd5b505af11580156106e8573d6000803e3d6000fd5b5050505050565b600080600560008473ffffffffffffffffffffffffffffffffffffffff1673ffffffffffffffffffffffffffffffffffffffff16815260200190815260200160002060010154426107409190612106565b90506000600254600560008673ffffffffffffffffffffffffffffffffffffffff1673ffffffffffffffffffffffffffffffffffffffff16815260200190815260200160002060000154603c84610797919061207b565b6107a191906120ac565b6107ab91906120ac565b90508092505050919050565b6000600560008373ffffffffffffffffffffffffffffffffffffffff1673ffffffffffffffffffffffffffffffffffffffff168152602001908152602001600020600001549050919050565b61080b6110ec565b73ffffffffffffffffffffffffffffffffffffffff16610829610928565b73ffffffffffffffffffffffffffffffffffffffff161461087f576040517f08c379a000000000000000000000000000000000000000000000000000000000815260040161087690611ece565b60405180910390fd5b61088960006110f4565b565b610893611847565b600560008373ffffffffffffffffffffffffffffffffffffffff1673ffffffffffffffffffffffffffffffffffffffff16815260200190815260200160002060405180606001604052908160008201548152602001600182015481526020016002820154815250509050919050565b60015481565b60066020528060005260406000206000915054906101000a900460ff1681565b60008060009054906101000a900473ffffffffffffffffffffffffffffffffffffffff16905090565b60056020528060005260406000206000915090508060000154908060010154908060020154905083565b6109836110ec565b73ffffffffffffffffffffffffffffffffffffffff166109a1610928565b73ffffffffffffffffffffffffffffffffffffffff16146109f7576040517f08c379a00000000000000000000000000000000000000000000000000000000081526004016109ee90611ece565b60405180910390fd5b60008111610a3a576040517f08c379a0000000000000000000000000000000000000000000000000000000008152600401610a3190611f0e565b60405180910390fd5b8060028190555050565b60606000600560008473ffffffffffffffffffffffffffffffffffffffff1673ffffffffffffffffffffffffffffffffffffffff16815260200190815260200160002060000154905060008111610ad0576040517f08c379a0000000000000000000000000000000000000000000000000000000008152600401610ac790611e6e565b60405180910390fd5b60008167ffffffffffffffff811115610b12577f4e487b7100000000000000000000000000000000000000000000000000000000600052604160045260246000fd5b604051908082528060200260200182016040528015610b405781602001602082028036833780820191505090505b50905060005b82811015610bb057610b588582610499565b828281518110610b91577f4e487b7100000000000000000000000000000000000000000000000000000000600052603260045260246000fd5b6020026020010181815250508080610ba8906121ae565b915050610b46565b508092505050919050565b6000600560003373ffffffffffffffffffffffffffffffffffffffff1673ffffffffffffffffffffffffffffffffffffffff1681526020019081526020016000206000015411610c40576040517f08c379a0000000000000000000000000000000000000000000000000000000008152600401610c3790611f2e565b60405180910390fd5b610c49336106ef565b600560003373ffffffffffffffffffffffffffffffffffffffff1673ffffffffffffffffffffffffffffffffffffffff1681526020019081526020016000206002016000828254610c9a9190612025565b9250508190555060005b82829050811015610d0a57610cf7838383818110610ceb577f4e487b7100000000000000000000000000000000000000000000000000000000600052603260045260246000fd5b905060200201356111b8565b8080610d02906121ae565b915050610ca4565b505050565b610d176110ec565b73ffffffffffffffffffffffffffffffffffffffff16610d35610928565b73ffffffffffffffffffffffffffffffffffffffff1614610d8b576040517f08c379a0000000000000000000000000000000000000000000000000000000008152600401610d8290611ece565b60405180910390fd5b600073ffffffffffffffffffffffffffffffffffffffff168173ffffffffffffffffffffffffffffffffffffffff161415610dfb576040517f08c379a0000000000000000000000000000000000000000000000000000000008152600401610df290611e2e565b60405180910390fd5b610e04816110f4565b50565b3373ffffffffffffffffffffffffffffffffffffffff16600460009054906101000a900473ffffffffffffffffffffffffffffffffffffffff1673ffffffffffffffffffffffffffffffffffffffff16636352211e836040518263ffffffff1660e01b8152600401610e799190611f89565b60206040518083038186803b158015610e9157600080fd5b505afa158015610ea5573d6000803e3d6000fd5b505050506040513d601f19601f82011682018060405250810190610ec99190611964565b73ffffffffffffffffffffffffffffffffffffffff1614610f1f576040517f08c379a0000000000000000000000000000000000000000000000000000000008152600401610f1690611eae565b60405180910390fd5b600015156006600083815260200190815260200160002060009054906101000a900460ff16151514610f86576040517f08c379a0000000000000000000000000000000000000000000000000000000008152600401610f7d90611e0e565b60405180910390fd5b60016006600083815260200190815260200160002060006101000a81548160ff021916908315150217905550610fbc33826113cd565b610fc581611486565b6001600560003373ffffffffffffffffffffffffffffffffffffffff1673ffffffffffffffffffffffffffffffffffffffff16815260200190815260200160002060000160008282546110189190612025565b92505081905550600460009054906101000a900473ffffffffffffffffffffffffffffffffffffffff1673ffffffffffffffffffffffffffffffffffffffff166323b872dd3330846040518463ffffffff1660e01b815260040161107e93929190611d56565b600060405180830381600087803b15801561109857600080fd5b505af11580156110ac573d6000803e3d6000fd5b505050507feaf147ad20f78bcf4ef79b3b4563bfdbae6e968b089448c90eab9aad5341cc3b33826040516110e1929190611d8d565b60405180910390a150565b600033905090565b60008060009054906101000a900473ffffffffffffffffffffffffffffffffffffffff169050816000806101000a81548173ffffffffffffffffffffffffffffffffffffffff021916908373ffffffffffffffffffffffffffffffffffffffff1602179055508173ffffffffffffffffffffffffffffffffffffffff168173ffffffffffffffffffffffffffffffffffffffff167f8be0079c531659141344cd1fd0a4f28419497f9722a3daafe3b4186f6b6457e060405160405180910390a35050565b6111c1816114cf565b611200576040517f08c379a00000000000000000000000000000000000000000000000000000000081526004016111f790611eae565b60405180910390fd5b600115156006600083815260200190815260200160002060009054906101000a900460ff16151514611267576040517f08c379a000000000000000000000000000000000000000000000000000000000815260040161125e90611e4e565b60405180910390fd5b60006006600083815260200190815260200160002060006101000a81548160ff02191690831515021790555061129d338261155d565b6112a681611704565b6001600560003373ffffffffffffffffffffffffffffffffffffffff1673ffffffffffffffffffffffffffffffffffffffff16815260200190815260200160002060000160008282546112f99190612106565b92505081905550600460009054906101000a900473ffffffffffffffffffffffffffffffffffffffff1673ffffffffffffffffffffffffffffffffffffffff166323b872dd3033846040518463ffffffff1660e01b815260040161135f93929190611d56565b600060405180830381600087803b15801561137957600080fd5b505af115801561138d573d6000803e3d6000fd5b505050507f0330bf341b55f2453da97ec36663aedbc518b8b069058bff402c2f742991fde633826040516113c2929190611d8d565b60405180910390a150565b6000600560008473ffffffffffffffffffffffffffffffffffffffff1673ffffffffffffffffffffffffffffffffffffffff16815260200190815260200160002060000154905081600760008573ffffffffffffffffffffffffffffffffffffffff1673ffffffffffffffffffffffffffffffffffffffff168152602001908152602001600020600083815260200190815260200160002081905550806008600084815260200190815260200160002081905550505050565b600980549050600a600083815260200190815260200160002081905550600981908060018154018082558091505060019003906000526020600020016000909190919091505550565b600080600560003373ffffffffffffffffffffffffffffffffffffffff1673ffffffffffffffffffffffffffffffffffffffff16815260200190815260200160002060000154905060005b81811015611551578361152d3383610499565b141561153e57600192505050611558565b8080611549906121ae565b91505061151a565b5060009150505b919050565b60006001600560008573ffffffffffffffffffffffffffffffffffffffff1673ffffffffffffffffffffffffffffffffffffffff168152602001908152602001600020600001546115ae9190612106565b9050600060086000848152602001908152602001600020549050818114611693576000600760008673ffffffffffffffffffffffffffffffffffffffff1673ffffffffffffffffffffffffffffffffffffffff168152602001908152602001600020600084815260200190815260200160002054905080600760008773ffffffffffffffffffffffffffffffffffffffff1673ffffffffffffffffffffffffffffffffffffffff168152602001908152602001600020600084815260200190815260200160002081905550816008600083815260200190815260200160002081905550505b6008600084815260200190815260200160002060009055600760008573ffffffffffffffffffffffffffffffffffffffff1673ffffffffffffffffffffffffffffffffffffffff16815260200190815260200160002060008381526020019081526020016000206000905550505050565b600060016009805490506117189190612106565b90506000600a600084815260200190815260200160002054905060006009838154811061176e577f4e487b7100000000000000000000000000000000000000000000000000000000600052603260045260246000fd5b9060005260206000200154905080600983815481106117b6577f4e487b7100000000000000000000000000000000000000000000000000000000600052603260045260246000fd5b906000526020600020018190555081600a600083815260200190815260200160002081905550600a600085815260200190815260200160002060009055600980548061182b577f4e487b7100000000000000000000000000000000000000000000000000000000600052603160045260246000fd5b6001900381819060005260206000200160009055905550505050565b60405180606001604052806000815260200160008152602001600081525090565b6000813590506118778161248a565b92915050565b60008151905061188c8161248a565b92915050565b60008083601f8401126118a457600080fd5b8235905067ffffffffffffffff8111156118bd57600080fd5b6020830191508360208202830111156118d557600080fd5b9250929050565b60008083601f8401126118ee57600080fd5b8235905067ffffffffffffffff81111561190757600080fd5b60208301915083600182028301111561191f57600080fd5b9250929050565b600081359050611935816124a1565b92915050565b60006020828403121561194d57600080fd5b600061195b84828501611868565b91505092915050565b60006020828403121561197657600080fd5b60006119848482850161187d565b91505092915050565b6000806000806000608086880312156119a557600080fd5b60006119b388828901611868565b95505060206119c488828901611868565b94505060406119d588828901611926565b935050606086013567ffffffffffffffff8111156119f257600080fd5b6119fe888289016118dc565b92509250509295509295909350565b60008060408385031215611a2057600080fd5b6000611a2e85828601611868565b9250506020611a3f85828601611926565b9150509250929050565b60008060208385031215611a5c57600080fd5b600083013567ffffffffffffffff811115611a7657600080fd5b611a8285828601611892565b92509250509250929050565b600060208284031215611aa057600080fd5b6000611aae84828501611926565b91505092915050565b6000611ac38383611d1d565b60208301905092915050565b611ad88161213a565b82525050565b6000611ae982611feb565b611af38185612003565b9350611afe83611fdb565b8060005b83811015611b2f578151611b168882611ab7565b9750611b2183611ff6565b925050600181019050611b02565b5085935050505092915050565b611b458161214c565b82525050565b611b5481612158565b82525050565b6000611b67601283612014565b9150611b7282612255565b602082019050919050565b6000611b8a602683612014565b9150611b958261227e565b604082019050919050565b6000611bad600e83612014565b9150611bb8826122cd565b602082019050919050565b6000611bd0600e83612014565b9150611bdb826122f6565b602082019050919050565b6000611bf3601383612014565b9150611bfe8261231f565b602082019050919050565b6000611c16601183612014565b9150611c2182612348565b602082019050919050565b6000611c39602083612014565b9150611c4482612371565b602082019050919050565b6000611c5c601983612014565b9150611c678261239a565b602082019050919050565b6000611c7f602183612014565b9150611c8a826123c3565b604082019050919050565b6000611ca2600f83612014565b9150611cad82612412565b602082019050919050565b6000611cc5602283612014565b9150611cd08261243b565b604082019050919050565b606082016000820151611cf16000850182611d1d565b506020820151611d046020850182611d1d565b506040820151611d176040850182611d1d565b50505050565b611d26816121a4565b82525050565b611d35816121a4565b82525050565b6000602082019050611d506000830184611acf565b92915050565b6000606082019050611d6b6000830186611acf565b611d786020830185611acf565b611d856040830184611d2c565b949350505050565b6000604082019050611da26000830185611acf565b611daf6020830184611d2c565b9392505050565b60006020820190508181036000830152611dd08184611ade565b905092915050565b6000602082019050611ded6000830184611b3c565b92915050565b6000602082019050611e086000830184611b4b565b92915050565b60006020820190508181036000830152611e2781611b5a565b9050919050565b60006020820190508181036000830152611e4781611b7d565b9050919050565b60006020820190508181036000830152611e6781611ba0565b9050919050565b60006020820190508181036000830152611e8781611bc3565b9050919050565b60006020820190508181036000830152611ea781611be6565b9050919050565b60006020820190508181036000830152611ec781611c09565b9050919050565b60006020820190508181036000830152611ee781611c2c565b9050919050565b60006020820190508181036000830152611f0781611c4f565b9050919050565b60006020820190508181036000830152611f2781611c72565b9050919050565b60006020820190508181036000830152611f4781611c95565b9050919050565b60006020820190508181036000830152611f6781611cb8565b9050919050565b6000606082019050611f836000830184611cdb565b92915050565b6000602082019050611f9e6000830184611d2c565b92915050565b6000606082019050611fb96000830186611d2c565b611fc66020830185611d2c565b611fd36040830184611d2c565b949350505050565b6000819050602082019050919050565b600081519050919050565b6000602082019050919050565b600082825260208201905092915050565b600082825260208201905092915050565b6000612030826121a4565b915061203b836121a4565b9250827fffffffffffffffffffffffffffffffffffffffffffffffffffffffffffffffff038211156120705761206f6121f7565b5b828201905092915050565b6000612086826121a4565b9150612091836121a4565b9250826120a1576120a0612226565b5b828204905092915050565b60006120b7826121a4565b91506120c2836121a4565b9250817fffffffffffffffffffffffffffffffffffffffffffffffffffffffffffffffff04831182151516156120fb576120fa6121f7565b5b828202905092915050565b6000612111826121a4565b915061211c836121a4565b92508282101561212f5761212e6121f7565b5b828203905092915050565b600061214582612184565b9050919050565b60008115159050919050565b60007fffffffff0000000000000000000000000000000000000000000000000000000082169050919050565b600073ffffffffffffffffffffffffffffffffffffffff82169050919050565b6000819050919050565b60006121b9826121a4565b91507fffffffffffffffffffffffffffffffffffffffffffffffffffffffffffffffff8214156121ec576121eb6121f7565b5b600182019050919050565b7f4e487b7100000000000000000000000000000000000000000000000000000000600052601160045260246000fd5b7f4e487b7100000000000000000000000000000000000000000000000000000000600052601260045260246000fd5b7f4e465420616c7265616479207374616b65640000000000000000000000000000600082015250565b7f4f776e61626c653a206e6577206f776e657220697320746865207a65726f206160008201527f6464726573730000000000000000000000000000000000000000000000000000602082015250565b7f4e4654206e6f74207374616b6564000000000000000000000000000000000000600082015250565b7f4e6f2050757373207374616b6564000000000000000000000000000000000000600082015250565b7f4e6f207265776172647320746f20636c61696d00000000000000000000000000600082015250565b7f47657420796f7572206f776e204e465473000000000000000000000000000000600082015250565b7f4f776e61626c653a2063616c6c6572206973206e6f7420746865206f776e6572600082015250565b7f6f776e657220696e646578206f7574206f6620626f756e647300000000000000600082015250565b7f5265776172642072617465206d75737420626520686967686572207468616e2060008201527f3000000000000000000000000000000000000000000000000000000000000000602082015250565b7f4e6f206974656d73207374616b65640000000000000000000000000000000000600082015250565b7f43616e6e6f742073656e64206e66747320746f205661756c742064697265637460008201527f6c79000000000000000000000000000000000000000000000000000000000000602082015250565b6124938161213a565b811461249e57600080fd5b50565b6124aa816121a4565b81146124b557600080fd5b5056fea26469706673582212205da9ca668f0a4cbc893e5e54b6a4a3e977c67865385f180fcbd4195932bb733064736f6c63430008040033",
  "linkReferences": {},
  "deployedLinkReferences": {}
}