{
  "_format": "hh-sol-artifact-1",
  "contractName": "Stake",
  "sourceName": "contracts/Stake.sol",
  "abi": [
    {
      "inputs": [
        {
          "internalType": "address",
          "name": "_nftAddress",
          "type": "address"
        },
        {
          "internalType": "address",
          "name": "_tokenAddress",
          "type": "address"
        }
      ],
      "stateMutability": "nonpayable",
      "type": "constructor"
    },
    {
      "anonymous": false,
      "inputs": [
        {
          "indexed": false,
          "internalType": "address",
          "name": "owner",
          "type": "address"
        },
        {
          "indexed": false,
          "internalType": "uint256",
          "name": "amount",
          "type": "uint256"
        }
      ],
      "name": "GravyClaimed",
      "type": "event"
    },
    {
      "anonymous": false,
      "inputs": [
        {
          "indexed": true,
          "internalType": "address",
          "name": "previousOwner",
          "type": "address"
        },
        {
          "indexed": true,
          "internalType": "address",
          "name": "newOwner",
          "type": "address"
        }
      ],
      "name": "OwnershipTransferred",
      "type": "event"
    },
    {
      "anonymous": false,
      "inputs": [
        {
          "indexed": false,
          "internalType": "address",
          "name": "owner",
          "type": "address"
        },
        {
          "indexed": false,
          "internalType": "uint256",
          "name": "tokenId",
          "type": "uint256"
        }
      ],
      "name": "PussStaked",
      "type": "event"
    },
    {
      "anonymous": false,
      "inputs": [
        {
          "indexed": false,
          "internalType": "address",
          "name": "owner",
          "type": "address"
        },
        {
          "indexed": false,
          "internalType": "uint256",
          "name": "tokenId",
          "type": "uint256"
        }
      ],
      "name": "PussUnstaked",
      "type": "event"
    },
    {
      "inputs": [
        {
          "internalType": "address",
          "name": "_address",
          "type": "address"
        }
      ],
      "name": "GetAllHolderTokens",
      "outputs": [
        {
          "internalType": "uint256[]",
          "name": "",
          "type": "uint256[]"
        }
      ],
      "stateMutability": "view",
      "type": "function"
    },
    {
      "inputs": [
        {
          "internalType": "address",
          "name": "_address",
          "type": "address"
        }
      ],
      "name": "balanceOf",
      "outputs": [
        {
          "internalType": "uint256",
          "name": "",
          "type": "uint256"
        }
      ],
      "stateMutability": "view",
      "type": "function"
    },
    {
      "inputs": [
        {
          "internalType": "address",
          "name": "account",
          "type": "address"
        }
      ],
      "name": "calculateRewards",
      "outputs": [
        {
          "internalType": "uint256",
          "name": "",
          "type": "uint256"
        }
      ],
      "stateMutability": "view",
      "type": "function"
    },
    {
      "inputs": [],
      "name": "claimRewards",
      "outputs": [],
      "stateMutability": "nonpayable",
      "type": "function"
    },
    {
      "inputs": [
        {
          "internalType": "address",
          "name": "",
          "type": "address"
        },
        {
          "internalType": "address",
          "name": "from",
          "type": "address"
        },
        {
          "internalType": "uint256",
          "name": "",
          "type": "uint256"
        },
        {
          "internalType": "bytes",
          "name": "",
          "type": "bytes"
        }
      ],
      "name": "onERC721Received",
      "outputs": [
        {
          "internalType": "bytes4",
          "name": "",
          "type": "bytes4"
        }
      ],
      "stateMutability": "pure",
      "type": "function"
    },
    {
      "inputs": [],
      "name": "owner",
      "outputs": [
        {
          "internalType": "address",
          "name": "",
          "type": "address"
        }
      ],
      "stateMutability": "view",
      "type": "function"
    },
    {
      "inputs": [],
      "name": "renounceOwnership",
      "outputs": [],
      "stateMutability": "nonpayable",
      "type": "function"
    },
    {
      "inputs": [
        {
          "internalType": "address",
          "name": "account",
          "type": "address"
        }
      ],
      "name": "rewardPerToken",
      "outputs": [
        {
          "internalType": "uint256",
          "name": "",
          "type": "uint256"
        }
      ],
      "stateMutability": "view",
      "type": "function"
    },
    {
      "inputs": [],
      "name": "rewardRate",
      "outputs": [
        {
          "internalType": "uint256",
          "name": "",
          "type": "uint256"
        }
      ],
      "stateMutability": "view",
      "type": "function"
    },
    {
      "inputs": [
        {
          "internalType": "uint256[]",
          "name": "_tokenIds",
          "type": "uint256[]"
        }
      ],
      "name": "stake",
      "outputs": [],
      "stateMutability": "nonpayable",
      "type": "function"
    },
    {
      "inputs": [
        {
          "internalType": "address",
          "name": "",
          "type": "address"
        }
      ],
      "name": "stakers",
      "outputs": [
        {
          "internalType": "uint256",
          "name": "amountStaked",
          "type": "uint256"
        },
        {
          "internalType": "uint256",
          "name": "timeOfLastUpdate",
          "type": "uint256"
        },
        {
          "internalType": "uint256",
          "name": "rewardsOwed",
          "type": "uint256"
        }
      ],
      "stateMutability": "view",
      "type": "function"
    },
    {
      "inputs": [
        {
          "internalType": "address",
          "name": "_ownerAddress",
          "type": "address"
        },
        {
          "internalType": "uint256",
          "name": "_index",
          "type": "uint256"
        }
      ],
      "name": "tokenOfOwnerByIndex",
      "outputs": [
        {
          "internalType": "uint256",
          "name": "",
          "type": "uint256"
        }
      ],
      "stateMutability": "view",
      "type": "function"
    },
    {
      "inputs": [
        {
          "internalType": "address",
          "name": "newOwner",
          "type": "address"
        }
      ],
      "name": "transferOwnership",
      "outputs": [],
      "stateMutability": "nonpayable",
      "type": "function"
    },
    {
      "inputs": [
        {
          "internalType": "uint256[]",
          "name": "tokenIds",
          "type": "uint256[]"
        }
      ],
      "name": "unstake",
      "outputs": [],
      "stateMutability": "nonpayable",
      "type": "function"
    },
    {
      "inputs": [
        {
          "internalType": "uint256",
          "name": "",
          "type": "uint256"
        }
      ],
      "name": "vault",
      "outputs": [
        {
          "internalType": "bool",
          "name": "",
          "type": "bool"
        }
      ],
      "stateMutability": "view",
      "type": "function"
    }
  ],
  "bytecode": "0x6080604052600a6001553480156200001657600080fd5b50604051620024b2380380620024b283398181016040528101906200003c9190620001c9565b6200005c62000050620000e660201b60201c565b620000ee60201b60201c565b81600360006101000a81548173ffffffffffffffffffffffffffffffffffffffff021916908373ffffffffffffffffffffffffffffffffffffffff16021790555080600260006101000a81548173ffffffffffffffffffffffffffffffffffffffff021916908373ffffffffffffffffffffffffffffffffffffffff160217905550505062000258565b600033905090565b60008060009054906101000a900473ffffffffffffffffffffffffffffffffffffffff169050816000806101000a81548173ffffffffffffffffffffffffffffffffffffffff021916908373ffffffffffffffffffffffffffffffffffffffff1602179055508173ffffffffffffffffffffffffffffffffffffffff168173ffffffffffffffffffffffffffffffffffffffff167f8be0079c531659141344cd1fd0a4f28419497f9722a3daafe3b4186f6b6457e060405160405180910390a35050565b600081519050620001c3816200023e565b92915050565b60008060408385031215620001dd57600080fd5b6000620001ed85828601620001b2565b92505060206200020085828601620001b2565b9150509250929050565b600062000217826200021e565b9050919050565b600073ffffffffffffffffffffffffffffffffffffffff82169050919050565b62000249816200020a565b81146200025557600080fd5b50565b61224a80620002686000396000f3fe608060405234801561001057600080fd5b50600436106100f55760003560e01c80637b0a47ee11610097578063b61635c511610066578063b61635c514610288578063e449f341146102b8578063f1229777146102d4578063f2fde38b14610304576100f5565b80637b0a47ee146101ea57806381a36fb6146102085780638da5cb5b146102385780639168ae7214610256576100f5565b8063372500ab116100d3578063372500ab1461017657806364ab86751461018057806370a08231146101b0578063715018a6146101e0576100f5565b80630fbf0a93146100fa578063150b7a02146101165780632f745c5914610146575b600080fd5b610114600480360381019061010f919061196c565b610320565b005b610130600480360381019061012b91906118b0565b61042c565b60405161013d9190611c6b565b60405180910390f35b610160600480360381019061015b9190611930565b6104af565b60405161016d9190611d86565b60405180910390f35b61017e61058e565b005b61019a6004803603810190610195919061185e565b61074d565b6040516101a79190611d86565b60405180910390f35b6101ca60048036038101906101c5919061185e565b61080c565b6040516101d79190611d86565b60405180910390f35b6101e8610858565b005b6101f26108e0565b6040516101ff9190611d86565b60405180910390f35b610222600480360381019061021d91906119b1565b6108e6565b60405161022f9190611c50565b60405180910390f35b610240610906565b60405161024d9190611bb3565b60405180910390f35b610270600480360381019061026b919061185e565b61092f565b60405161027f93929190611da1565b60405180910390f35b6102a2600480360381019061029d919061185e565b610959565b6040516102af9190611c2e565b60405180910390f35b6102d260048036038101906102cd919061196c565b610ad0565b005b6102ee60048036038101906102e9919061185e565b610bdc565b6040516102fb9190611d86565b60405180910390f35b61031e6004803603810190610319919061185e565b610c53565b005b33600061032c8261074d565b905042600460008473ffffffffffffffffffffffffffffffffffffffff1673ffffffffffffffffffffffffffffffffffffffff1681526020019081526020016000206001018190555080600460008473ffffffffffffffffffffffffffffffffffffffff1673ffffffffffffffffffffffffffffffffffffffff1681526020019081526020016000206002018190555060005b8484905081101561042557610412858583818110610406577f4e487b7100000000000000000000000000000000000000000000000000000000600052603260045260246000fd5b90506020020135610d4b565b808061041d90611fab565b9150506103bf565b5050505050565b60008073ffffffffffffffffffffffffffffffffffffffff168573ffffffffffffffffffffffffffffffffffffffff161461049c576040517f08c379a000000000000000000000000000000000000000000000000000000000815260040161049390611d66565b60405180910390fd5b63150b7a0260e01b905095945050505050565b6000600460008473ffffffffffffffffffffffffffffffffffffffff1673ffffffffffffffffffffffffffffffffffffffff168152602001908152602001600020600001548210610535576040517f08c379a000000000000000000000000000000000000000000000000000000000815260040161052c90611d46565b60405180910390fd5b600660008473ffffffffffffffffffffffffffffffffffffffff1673ffffffffffffffffffffffffffffffffffffffff168152602001908152602001600020600083815260200190815260200160002054905092915050565b33600061059a8261074d565b905042600460008473ffffffffffffffffffffffffffffffffffffffff1673ffffffffffffffffffffffffffffffffffffffff1681526020019081526020016000206001018190555080600460008473ffffffffffffffffffffffffffffffffffffffff1673ffffffffffffffffffffffffffffffffffffffff168152602001908152602001600020600201819055506000600460003373ffffffffffffffffffffffffffffffffffffffff1673ffffffffffffffffffffffffffffffffffffffff1681526020019081526020016000206002015490506000600460003373ffffffffffffffffffffffffffffffffffffffff1673ffffffffffffffffffffffffffffffffffffffff16815260200190815260200160002060020181905550600260009054906101000a900473ffffffffffffffffffffffffffffffffffffffff1673ffffffffffffffffffffffffffffffffffffffff166340c10f1933836040518363ffffffff1660e01b8152600401610716929190611c05565b600060405180830381600087803b15801561073057600080fd5b505af1158015610744573d6000803e3d6000fd5b50505050505050565b6000600460008373ffffffffffffffffffffffffffffffffffffffff1673ffffffffffffffffffffffffffffffffffffffff16815260200190815260200160002060020154670de0b6b3a76400006107a484610bdc565b600460008673ffffffffffffffffffffffffffffffffffffffff1673ffffffffffffffffffffffffffffffffffffffff168152602001908152602001600020600001546107f19190611ea9565b6107fb9190611e78565b6108059190611e22565b9050919050565b6000600460008373ffffffffffffffffffffffffffffffffffffffff1673ffffffffffffffffffffffffffffffffffffffff168152602001908152602001600020600001549050919050565b610860611030565b73ffffffffffffffffffffffffffffffffffffffff1661087e610906565b73ffffffffffffffffffffffffffffffffffffffff16146108d4576040517f08c379a00000000000000000000000000000000000000000000000000000000081526004016108cb90611d26565b60405180910390fd5b6108de6000611038565b565b60015481565b60056020528060005260406000206000915054906101000a900460ff1681565b60008060009054906101000a900473ffffffffffffffffffffffffffffffffffffffff16905090565b60046020528060005260406000206000915090508060000154908060010154908060020154905083565b60606000600460008473ffffffffffffffffffffffffffffffffffffffff1673ffffffffffffffffffffffffffffffffffffffff168152602001908152602001600020600001549050600081116109e5576040517f08c379a00000000000000000000000000000000000000000000000000000000081526004016109dc90611ce6565b60405180910390fd5b60008167ffffffffffffffff811115610a27577f4e487b7100000000000000000000000000000000000000000000000000000000600052604160045260246000fd5b604051908082528060200260200182016040528015610a555781602001602082028036833780820191505090505b50905060005b82811015610ac557610a6d85826104af565b828281518110610aa6577f4e487b7100000000000000000000000000000000000000000000000000000000600052603260045260246000fd5b6020026020010181815250508080610abd90611fab565b915050610a5b565b508092505050919050565b336000610adc8261074d565b905042600460008473ffffffffffffffffffffffffffffffffffffffff1673ffffffffffffffffffffffffffffffffffffffff1681526020019081526020016000206001018190555080600460008473ffffffffffffffffffffffffffffffffffffffff1673ffffffffffffffffffffffffffffffffffffffff1681526020019081526020016000206002018190555060005b84849050811015610bd557610bc2858583818110610bb6577f4e487b7100000000000000000000000000000000000000000000000000000000600052603260045260246000fd5b905060200201356110fc565b8080610bcd90611fab565b915050610b6f565b5050505050565b6000670de0b6b3a7640000600154600460008573ffffffffffffffffffffffffffffffffffffffff1673ffffffffffffffffffffffffffffffffffffffff1681526020019081526020016000206001015442610c389190611f03565b610c429190611ea9565b610c4c9190611ea9565b9050919050565b610c5b611030565b73ffffffffffffffffffffffffffffffffffffffff16610c79610906565b73ffffffffffffffffffffffffffffffffffffffff1614610ccf576040517f08c379a0000000000000000000000000000000000000000000000000000000008152600401610cc690611d26565b60405180910390fd5b600073ffffffffffffffffffffffffffffffffffffffff168173ffffffffffffffffffffffffffffffffffffffff161415610d3f576040517f08c379a0000000000000000000000000000000000000000000000000000000008152600401610d3690611ca6565b60405180910390fd5b610d4881611038565b50565b3373ffffffffffffffffffffffffffffffffffffffff16600360009054906101000a900473ffffffffffffffffffffffffffffffffffffffff1673ffffffffffffffffffffffffffffffffffffffff16636352211e836040518263ffffffff1660e01b8152600401610dbd9190611d86565b60206040518083038186803b158015610dd557600080fd5b505afa158015610de9573d6000803e3d6000fd5b505050506040513d601f19601f82011682018060405250810190610e0d9190611887565b73ffffffffffffffffffffffffffffffffffffffff1614610e63576040517f08c379a0000000000000000000000000000000000000000000000000000000008152600401610e5a90611d06565b60405180910390fd5b600015156005600083815260200190815260200160002060009054906101000a900460ff16151514610eca576040517f08c379a0000000000000000000000000000000000000000000000000000000008152600401610ec190611c86565b60405180910390fd5b60016005600083815260200190815260200160002060006101000a81548160ff021916908315150217905550610f003382611311565b610f09816113ca565b6001600460003373ffffffffffffffffffffffffffffffffffffffff1673ffffffffffffffffffffffffffffffffffffffff1681526020019081526020016000206000016000828254610f5c9190611e22565b92505081905550600360009054906101000a900473ffffffffffffffffffffffffffffffffffffffff1673ffffffffffffffffffffffffffffffffffffffff166323b872dd3330846040518463ffffffff1660e01b8152600401610fc293929190611bce565b600060405180830381600087803b158015610fdc57600080fd5b505af1158015610ff0573d6000803e3d6000fd5b505050507feaf147ad20f78bcf4ef79b3b4563bfdbae6e968b089448c90eab9aad5341cc3b3382604051611025929190611c05565b60405180910390a150565b600033905090565b60008060009054906101000a900473ffffffffffffffffffffffffffffffffffffffff169050816000806101000a81548173ffffffffffffffffffffffffffffffffffffffff021916908373ffffffffffffffffffffffffffffffffffffffff1602179055508173ffffffffffffffffffffffffffffffffffffffff168173ffffffffffffffffffffffffffffffffffffffff167f8be0079c531659141344cd1fd0a4f28419497f9722a3daafe3b4186f6b6457e060405160405180910390a35050565b61110581611413565b611144576040517f08c379a000000000000000000000000000000000000000000000000000000000815260040161113b90611d06565b60405180910390fd5b600115156005600083815260200190815260200160002060009054906101000a900460ff161515146111ab576040517f08c379a00000000000000000000000000000000000000000000000000000000081526004016111a290611cc6565b60405180910390fd5b60006005600083815260200190815260200160002060006101000a81548160ff0219169083151502179055506111e133826114a1565b6111ea81611648565b6001600460003373ffffffffffffffffffffffffffffffffffffffff1673ffffffffffffffffffffffffffffffffffffffff168152602001908152602001600020600001600082825461123d9190611f03565b92505081905550600360009054906101000a900473ffffffffffffffffffffffffffffffffffffffff1673ffffffffffffffffffffffffffffffffffffffff166323b872dd3033846040518463ffffffff1660e01b81526004016112a393929190611bce565b600060405180830381600087803b1580156112bd57600080fd5b505af11580156112d1573d6000803e3d6000fd5b505050507f0330bf341b55f2453da97ec36663aedbc518b8b069058bff402c2f742991fde63382604051611306929190611c05565b60405180910390a150565b6000600460008473ffffffffffffffffffffffffffffffffffffffff1673ffffffffffffffffffffffffffffffffffffffff16815260200190815260200160002060000154905081600660008573ffffffffffffffffffffffffffffffffffffffff1673ffffffffffffffffffffffffffffffffffffffff168152602001908152602001600020600083815260200190815260200160002081905550806007600084815260200190815260200160002081905550505050565b6008805490506009600083815260200190815260200160002081905550600881908060018154018082558091505060019003906000526020600020016000909190919091505550565b600080600460003373ffffffffffffffffffffffffffffffffffffffff1673ffffffffffffffffffffffffffffffffffffffff16815260200190815260200160002060000154905060005b81811015611495578361147133836104af565b14156114825760019250505061149c565b808061148d90611fab565b91505061145e565b5060009150505b919050565b60006001600460008573ffffffffffffffffffffffffffffffffffffffff1673ffffffffffffffffffffffffffffffffffffffff168152602001908152602001600020600001546114f29190611f03565b90506000600760008481526020019081526020016000205490508181146115d7576000600660008673ffffffffffffffffffffffffffffffffffffffff1673ffffffffffffffffffffffffffffffffffffffff168152602001908152602001600020600084815260200190815260200160002054905080600660008773ffffffffffffffffffffffffffffffffffffffff1673ffffffffffffffffffffffffffffffffffffffff168152602001908152602001600020600084815260200190815260200160002081905550816007600083815260200190815260200160002081905550505b6007600084815260200190815260200160002060009055600660008573ffffffffffffffffffffffffffffffffffffffff1673ffffffffffffffffffffffffffffffffffffffff16815260200190815260200160002060008381526020019081526020016000206000905550505050565b6000600160088054905061165c9190611f03565b90506000600960008481526020019081526020016000205490506000600883815481106116b2577f4e487b7100000000000000000000000000000000000000000000000000000000600052603260045260246000fd5b9060005260206000200154905080600883815481106116fa577f4e487b7100000000000000000000000000000000000000000000000000000000600052603260045260246000fd5b90600052602060002001819055508160096000838152602001908152602001600020819055506009600085815260200190815260200160002060009055600880548061176f577f4e487b7100000000000000000000000000000000000000000000000000000000600052603160045260246000fd5b6001900381819060005260206000200160009055905550505050565b60008135905061179a816121e6565b92915050565b6000815190506117af816121e6565b92915050565b60008083601f8401126117c757600080fd5b8235905067ffffffffffffffff8111156117e057600080fd5b6020830191508360208202830111156117f857600080fd5b9250929050565b60008083601f84011261181157600080fd5b8235905067ffffffffffffffff81111561182a57600080fd5b60208301915083600182028301111561184257600080fd5b9250929050565b600081359050611858816121fd565b92915050565b60006020828403121561187057600080fd5b600061187e8482850161178b565b91505092915050565b60006020828403121561189957600080fd5b60006118a7848285016117a0565b91505092915050565b6000806000806000608086880312156118c857600080fd5b60006118d68882890161178b565b95505060206118e78882890161178b565b94505060406118f888828901611849565b935050606086013567ffffffffffffffff81111561191557600080fd5b611921888289016117ff565b92509250509295509295909350565b6000806040838503121561194357600080fd5b60006119518582860161178b565b925050602061196285828601611849565b9150509250929050565b6000806020838503121561197f57600080fd5b600083013567ffffffffffffffff81111561199957600080fd5b6119a5858286016117b5565b92509250509250929050565b6000602082840312156119c357600080fd5b60006119d184828501611849565b91505092915050565b60006119e68383611b95565b60208301905092915050565b6119fb81611f37565b82525050565b6000611a0c82611de8565b611a168185611e00565b9350611a2183611dd8565b8060005b83811015611a52578151611a3988826119da565b9750611a4483611df3565b925050600181019050611a25565b5085935050505092915050565b611a6881611f49565b82525050565b611a7781611f55565b82525050565b6000611a8a601283611e11565b9150611a9582612052565b602082019050919050565b6000611aad602683611e11565b9150611ab88261207b565b604082019050919050565b6000611ad0600e83611e11565b9150611adb826120ca565b602082019050919050565b6000611af3600e83611e11565b9150611afe826120f3565b602082019050919050565b6000611b16601183611e11565b9150611b218261211c565b602082019050919050565b6000611b39602083611e11565b9150611b4482612145565b602082019050919050565b6000611b5c601983611e11565b9150611b678261216e565b602082019050919050565b6000611b7f602283611e11565b9150611b8a82612197565b604082019050919050565b611b9e81611fa1565b82525050565b611bad81611fa1565b82525050565b6000602082019050611bc860008301846119f2565b92915050565b6000606082019050611be360008301866119f2565b611bf060208301856119f2565b611bfd6040830184611ba4565b949350505050565b6000604082019050611c1a60008301856119f2565b611c276020830184611ba4565b9392505050565b60006020820190508181036000830152611c488184611a01565b905092915050565b6000602082019050611c656000830184611a5f565b92915050565b6000602082019050611c806000830184611a6e565b92915050565b60006020820190508181036000830152611c9f81611a7d565b9050919050565b60006020820190508181036000830152611cbf81611aa0565b9050919050565b60006020820190508181036000830152611cdf81611ac3565b9050919050565b60006020820190508181036000830152611cff81611ae6565b9050919050565b60006020820190508181036000830152611d1f81611b09565b9050919050565b60006020820190508181036000830152611d3f81611b2c565b9050919050565b60006020820190508181036000830152611d5f81611b4f565b9050919050565b60006020820190508181036000830152611d7f81611b72565b9050919050565b6000602082019050611d9b6000830184611ba4565b92915050565b6000606082019050611db66000830186611ba4565b611dc36020830185611ba4565b611dd06040830184611ba4565b949350505050565b6000819050602082019050919050565b600081519050919050565b6000602082019050919050565b600082825260208201905092915050565b600082825260208201905092915050565b6000611e2d82611fa1565b9150611e3883611fa1565b9250827fffffffffffffffffffffffffffffffffffffffffffffffffffffffffffffffff03821115611e6d57611e6c611ff4565b5b828201905092915050565b6000611e8382611fa1565b9150611e8e83611fa1565b925082611e9e57611e9d612023565b5b828204905092915050565b6000611eb482611fa1565b9150611ebf83611fa1565b9250817fffffffffffffffffffffffffffffffffffffffffffffffffffffffffffffffff0483118215151615611ef857611ef7611ff4565b5b828202905092915050565b6000611f0e82611fa1565b9150611f1983611fa1565b925082821015611f2c57611f2b611ff4565b5b828203905092915050565b6000611f4282611f81565b9050919050565b60008115159050919050565b60007fffffffff0000000000000000000000000000000000000000000000000000000082169050919050565b600073ffffffffffffffffffffffffffffffffffffffff82169050919050565b6000819050919050565b6000611fb682611fa1565b91507fffffffffffffffffffffffffffffffffffffffffffffffffffffffffffffffff821415611fe957611fe8611ff4565b5b600182019050919050565b7f4e487b7100000000000000000000000000000000000000000000000000000000600052601160045260246000fd5b7f4e487b7100000000000000000000000000000000000000000000000000000000600052601260045260246000fd5b7f4e465420616c7265616479207374616b65640000000000000000000000000000600082015250565b7f4f776e61626c653a206e6577206f776e657220697320746865207a65726f206160008201527f6464726573730000000000000000000000000000000000000000000000000000602082015250565b7f4e4654206e6f74207374616b6564000000000000000000000000000000000000600082015250565b7f4e6f2050757373207374616b6564000000000000000000000000000000000000600082015250565b7f47657420796f7572206f776e204e465473000000000000000000000000000000600082015250565b7f4f776e61626c653a2063616c6c6572206973206e6f7420746865206f776e6572600082015250565b7f6f776e657220696e646578206f7574206f6620626f756e647300000000000000600082015250565b7f43616e6e6f742073656e64206e66747320746f205661756c742064697265637460008201527f6c79000000000000000000000000000000000000000000000000000000000000602082015250565b6121ef81611f37565b81146121fa57600080fd5b50565b61220681611fa1565b811461221157600080fd5b5056fea2646970667358221220364323e3c28eb5edecd86de930f5aa3580b7fd8b5a235f6dda5002083d90ef7664736f6c63430008040033",
  "linkReferences": {},
  "deployedLinkReferences": {}
}